{
  "abi": [
    {
      "inputs": [],
      "stateMutability": "nonpayable",
      "type": "constructor"
    },
    {
      "anonymous": false,
      "inputs": [
        {
          "indexed": true,
          "internalType": "address",
          "name": "owner",
          "type": "address"
        },
        {
          "indexed": true,
          "internalType": "address",
          "name": "spender",
          "type": "address"
        },
        {
          "indexed": false,
          "internalType": "uint256",
          "name": "value",
          "type": "uint256"
        }
      ],
      "name": "Approval",
      "type": "event"
    },
    {
      "anonymous": false,
      "inputs": [
        {
          "indexed": false,
          "internalType": "uint256",
          "name": "minTokensBeforeSwap",
          "type": "uint256"
        }
      ],
      "name": "MinTokensBeforeSwapUpdated",
      "type": "event"
    },
    {
      "anonymous": false,
      "inputs": [
        {
          "indexed": true,
          "internalType": "address",
          "name": "previousOwner",
          "type": "address"
        },
        {
          "indexed": true,
          "internalType": "address",
          "name": "newOwner",
          "type": "address"
        }
      ],
      "name": "OwnershipTransferred",
      "type": "event"
    },
    {
      "anonymous": false,
      "inputs": [
        {
          "indexed": false,
          "internalType": "uint256",
          "name": "tokensSwapped",
          "type": "uint256"
        },
        {
          "indexed": false,
          "internalType": "uint256",
          "name": "ethReceived",
          "type": "uint256"
        },
        {
          "indexed": false,
          "internalType": "uint256",
          "name": "tokensIntoLiqudity",
          "type": "uint256"
        }
      ],
      "name": "SwapAndLiquify",
      "type": "event"
    },
    {
      "anonymous": false,
      "inputs": [
        {
          "indexed": false,
          "internalType": "bool",
          "name": "enabled",
          "type": "bool"
        }
      ],
      "name": "SwapAndLiquifyEnabledUpdated",
      "type": "event"
    },
    {
      "anonymous": false,
      "inputs": [
        {
          "indexed": true,
          "internalType": "address",
          "name": "from",
          "type": "address"
        },
        {
          "indexed": true,
          "internalType": "address",
          "name": "to",
          "type": "address"
        },
        {
          "indexed": false,
          "internalType": "uint256",
          "name": "value",
          "type": "uint256"
        }
      ],
      "name": "Transfer",
      "type": "event"
    },
    {
      "inputs": [],
      "name": "_liquidityFee",
      "outputs": [
        {
          "internalType": "uint256",
          "name": "",
          "type": "uint256"
        }
      ],
      "stateMutability": "view",
      "type": "function"
    },
    {
      "inputs": [],
      "name": "_maxTxAmount",
      "outputs": [
        {
          "internalType": "uint256",
          "name": "",
          "type": "uint256"
        }
      ],
      "stateMutability": "view",
      "type": "function"
    },
    {
      "inputs": [],
      "name": "_taxFee",
      "outputs": [
        {
          "internalType": "uint256",
          "name": "",
          "type": "uint256"
        }
      ],
      "stateMutability": "view",
      "type": "function"
    },
    {
      "inputs": [
        {
          "internalType": "address",
          "name": "owner",
          "type": "address"
        },
        {
          "internalType": "address",
          "name": "spender",
          "type": "address"
        }
      ],
      "name": "allowance",
      "outputs": [
        {
          "internalType": "uint256",
          "name": "",
          "type": "uint256"
        }
      ],
      "stateMutability": "view",
      "type": "function"
    },
    {
      "inputs": [
        {
          "internalType": "address",
          "name": "spender",
          "type": "address"
        },
        {
          "internalType": "uint256",
          "name": "amount",
          "type": "uint256"
        }
      ],
      "name": "approve",
      "outputs": [
        {
          "internalType": "bool",
          "name": "",
          "type": "bool"
        }
      ],
      "stateMutability": "nonpayable",
      "type": "function"
    },
    {
      "inputs": [
        {
          "internalType": "address",
          "name": "account",
          "type": "address"
        }
      ],
      "name": "balanceOf",
      "outputs": [
        {
          "internalType": "uint256",
          "name": "",
          "type": "uint256"
        }
      ],
      "stateMutability": "view",
      "type": "function"
    },
    {
      "inputs": [],
      "name": "decimals",
      "outputs": [
        {
          "internalType": "uint8",
          "name": "",
          "type": "uint8"
        }
      ],
      "stateMutability": "view",
      "type": "function"
    },
    {
      "inputs": [
        {
          "internalType": "address",
          "name": "spender",
          "type": "address"
        },
        {
          "internalType": "uint256",
          "name": "subtractedValue",
          "type": "uint256"
        }
      ],
      "name": "decreaseAllowance",
      "outputs": [
        {
          "internalType": "bool",
          "name": "",
          "type": "bool"
        }
      ],
      "stateMutability": "nonpayable",
      "type": "function"
    },
    {
      "inputs": [
        {
          "internalType": "uint256",
          "name": "tAmount",
          "type": "uint256"
        }
      ],
      "name": "deliver",
      "outputs": [],
      "stateMutability": "nonpayable",
      "type": "function"
    },
    {
      "inputs": [
        {
          "internalType": "address",
          "name": "account",
          "type": "address"
        }
      ],
      "name": "excludeFromFee",
      "outputs": [],
      "stateMutability": "nonpayable",
      "type": "function"
    },
    {
      "inputs": [
        {
          "internalType": "address",
          "name": "account",
          "type": "address"
        }
      ],
      "name": "excludeFromReward",
      "outputs": [],
      "stateMutability": "nonpayable",
      "type": "function"
    },
    {
      "inputs": [],
      "name": "geUnlockTime",
      "outputs": [
        {
          "internalType": "uint256",
          "name": "",
          "type": "uint256"
        }
      ],
      "stateMutability": "view",
      "type": "function"
    },
    {
      "inputs": [
        {
          "internalType": "address",
          "name": "account",
          "type": "address"
        }
      ],
      "name": "includeInFee",
      "outputs": [],
      "stateMutability": "nonpayable",
      "type": "function"
    },
    {
      "inputs": [
        {
          "internalType": "address",
          "name": "account",
          "type": "address"
        }
      ],
      "name": "includeInReward",
      "outputs": [],
      "stateMutability": "nonpayable",
      "type": "function"
    },
    {
      "inputs": [
        {
          "internalType": "address",
          "name": "spender",
          "type": "address"
        },
        {
          "internalType": "uint256",
          "name": "addedValue",
          "type": "uint256"
        }
      ],
      "name": "increaseAllowance",
      "outputs": [
        {
          "internalType": "bool",
          "name": "",
          "type": "bool"
        }
      ],
      "stateMutability": "nonpayable",
      "type": "function"
    },
    {
      "inputs": [
        {
          "internalType": "address",
          "name": "account",
          "type": "address"
        }
      ],
      "name": "isExcludedFromFee",
      "outputs": [
        {
          "internalType": "bool",
          "name": "",
          "type": "bool"
        }
      ],
      "stateMutability": "view",
      "type": "function"
    },
    {
      "inputs": [
        {
          "internalType": "address",
          "name": "account",
          "type": "address"
        }
      ],
      "name": "isExcludedFromReward",
      "outputs": [
        {
          "internalType": "bool",
          "name": "",
          "type": "bool"
        }
      ],
      "stateMutability": "view",
      "type": "function"
    },
    {
      "inputs": [
        {
          "internalType": "uint256",
          "name": "time",
          "type": "uint256"
        }
      ],
      "name": "lock",
      "outputs": [],
      "stateMutability": "nonpayable",
      "type": "function"
    },
    {
      "inputs": [],
      "name": "name",
      "outputs": [
        {
          "internalType": "string",
          "name": "",
          "type": "string"
        }
      ],
      "stateMutability": "view",
      "type": "function"
    },
    {
      "inputs": [],
      "name": "owner",
      "outputs": [
        {
          "internalType": "address",
          "name": "",
          "type": "address"
        }
      ],
      "stateMutability": "view",
      "type": "function"
    },
    {
      "inputs": [
        {
          "internalType": "uint256",
          "name": "tAmount",
          "type": "uint256"
        },
        {
          "internalType": "bool",
          "name": "deductTransferFee",
          "type": "bool"
        }
      ],
      "name": "reflectionFromToken",
      "outputs": [
        {
          "internalType": "uint256",
          "name": "",
          "type": "uint256"
        }
      ],
      "stateMutability": "view",
      "type": "function"
    },
    {
      "inputs": [],
      "name": "renounceOwnership",
      "outputs": [],
      "stateMutability": "nonpayable",
      "type": "function"
    },
    {
      "inputs": [
        {
          "internalType": "uint256",
          "name": "liquidityFee",
          "type": "uint256"
        }
      ],
      "name": "setLiquidityFeePercent",
      "outputs": [],
      "stateMutability": "nonpayable",
      "type": "function"
    },
    {
      "inputs": [
        {
          "internalType": "uint256",
          "name": "maxTxPercent",
          "type": "uint256"
        }
      ],
      "name": "setMaxTxPercent",
      "outputs": [],
      "stateMutability": "nonpayable",
      "type": "function"
    },
    {
      "inputs": [
        {
          "internalType": "bool",
          "name": "_enabled",
          "type": "bool"
        }
      ],
      "name": "setSwapAndLiquifyEnabled",
      "outputs": [],
      "stateMutability": "nonpayable",
      "type": "function"
    },
    {
      "inputs": [
        {
          "internalType": "uint256",
          "name": "taxFee",
          "type": "uint256"
        }
      ],
      "name": "setTaxFeePercent",
      "outputs": [],
      "stateMutability": "nonpayable",
      "type": "function"
    },
    {
      "inputs": [],
      "name": "swapAndLiquifyEnabled",
      "outputs": [
        {
          "internalType": "bool",
          "name": "",
          "type": "bool"
        }
      ],
      "stateMutability": "view",
      "type": "function"
    },
    {
      "inputs": [],
      "name": "symbol",
      "outputs": [
        {
          "internalType": "string",
          "name": "",
          "type": "string"
        }
      ],
      "stateMutability": "view",
      "type": "function"
    },
    {
      "inputs": [
        {
          "internalType": "uint256",
          "name": "rAmount",
          "type": "uint256"
        }
      ],
      "name": "tokenFromReflection",
      "outputs": [
        {
          "internalType": "uint256",
          "name": "",
          "type": "uint256"
        }
      ],
      "stateMutability": "view",
      "type": "function"
    },
    {
      "inputs": [],
      "name": "totalFees",
      "outputs": [
        {
          "internalType": "uint256",
          "name": "",
          "type": "uint256"
        }
      ],
      "stateMutability": "view",
      "type": "function"
    },
    {
      "inputs": [],
      "name": "totalSupply",
      "outputs": [
        {
          "internalType": "uint256",
          "name": "",
          "type": "uint256"
        }
      ],
      "stateMutability": "view",
      "type": "function"
    },
    {
      "inputs": [
        {
          "internalType": "address",
          "name": "recipient",
          "type": "address"
        },
        {
          "internalType": "uint256",
          "name": "amount",
          "type": "uint256"
        }
      ],
      "name": "transfer",
      "outputs": [
        {
          "internalType": "bool",
          "name": "",
          "type": "bool"
        }
      ],
      "stateMutability": "nonpayable",
      "type": "function"
    },
    {
      "inputs": [
        {
          "internalType": "address",
          "name": "sender",
          "type": "address"
        },
        {
          "internalType": "address",
          "name": "recipient",
          "type": "address"
        },
        {
          "internalType": "uint256",
          "name": "amount",
          "type": "uint256"
        }
      ],
      "name": "transferFrom",
      "outputs": [
        {
          "internalType": "bool",
          "name": "",
          "type": "bool"
        }
      ],
      "stateMutability": "nonpayable",
      "type": "function"
    },
    {
      "inputs": [
        {
          "internalType": "address",
          "name": "newOwner",
          "type": "address"
        }
      ],
      "name": "transferOwnership",
      "outputs": [],
      "stateMutability": "nonpayable",
      "type": "function"
    },
    {
      "inputs": [],
      "name": "uniswapV2Pair",
      "outputs": [
        {
          "internalType": "address",
          "name": "",
          "type": "address"
        }
      ],
      "stateMutability": "view",
      "type": "function"
    },
    {
      "inputs": [],
      "name": "uniswapV2Router",
      "outputs": [
        {
          "internalType": "contract IUniswapV2Router02",
          "name": "",
          "type": "address"
        }
      ],
      "stateMutability": "view",
      "type": "function"
    },
    {
      "inputs": [],
      "name": "unlock",
      "outputs": [],
      "stateMutability": "nonpayable",
      "type": "function"
    },
    {
      "stateMutability": "payable",
      "type": "receive"
    }
  ],
  "bytecode": {
    "object": "0x60c060405269d3c21bcecceda10000006009819055620000229060001962000417565b62000030906000196200043a565b600a556040805180820190915260088082526729b0b332a6b7b7b760c11b60209092019182526200006491600c9162000371565b506040805180820190915260088082526729a0a322a6a7a7a760c11b60209092019182526200009691600d9162000371565b50600e805460ff191660091790556000600f819055601055600560118190556012556013805461ff00191661010017905569010f0cf064dd59200000601455681b1ae4d6e2ef500000601555348015620000ef57600080fd5b50600080546001600160a01b031916339081178255604051909182917f8be0079c531659141344cd1fd0a4f28419497f9722a3daafe3b4186f6b6457e0908290a350600a543360009081526003602090815260409182902092909255805163c45a015560e01b815290517305ff2b0db69458a0750badebc4f9e13add608c7f92839263c45a015592600480830193928290030181865afa15801562000198573d6000803e3d6000fd5b505050506040513d601f19601f82011682018060405250810190620001be919062000460565b6001600160a01b031663c9c6539630836001600160a01b031663ad5c46486040518163ffffffff1660e01b8152600401602060405180830381865afa1580156200020c573d6000803e3d6000fd5b505050506040513d601f19601f8201168201806040525081019062000232919062000460565b6040516001600160e01b031960e085901b1681526001600160a01b039283166004820152911660248201526044016020604051808303816000875af115801562000280573d6000803e3d6000fd5b505050506040513d601f19601f82011682018060405250810190620002a6919062000460565b6001600160a01b0390811660a0528116608052600160066000620002d26000546001600160a01b031690565b6001600160a01b0316815260208082019290925260409081016000908120805494151560ff1995861617905530815260069092529020805490911660011790556200031a3390565b6001600160a01b031660006001600160a01b03167fddf252ad1be2c89b69c2b068fc378daa952ba7f163c4a11628f55a4df523b3ef6009546040516200036291815260200190565b60405180910390a350620004cf565b8280546200037f9062000492565b90600052602060002090601f016020900481019282620003a35760008555620003ee565b82601f10620003be57805160ff1916838001178555620003ee565b82800160010185558215620003ee579182015b82811115620003ee578251825591602001919060010190620003d1565b50620003fc92915062000400565b5090565b5b80821115620003fc576000815560010162000401565b6000826200043557634e487b7160e01b600052601260045260246000fd5b500690565b6000828210156200045b57634e487b7160e01b600052601160045260246000fd5b500390565b6000602082840312156200047357600080fd5b81516001600160a01b03811681146200048b57600080fd5b9392505050565b600181811c90821680620004a757607f821691505b60208210811415620004c957634e487b7160e01b600052602260045260246000fd5b50919050565b60805160a0516127816200051f6000396000818161045101526115ed0152600081816102d801528181611d6901528181611e2201528181611e5e01528181611ed00152611ef701526127816000f3fe60806040526004361061021e5760003560e01c80635342acb411610123578063a457c2d7116100ab578063d543dbeb1161006f578063d543dbeb14610662578063dd46706414610682578063dd62ed3e146106a2578063ea2f0b37146106e8578063f2fde38b1461070857600080fd5b8063a457c2d7146105d8578063a69df4b5146105f8578063a9059cbb1461060d578063b6c523241461062d578063c49b9a801461064257600080fd5b80637d1db4a5116100f25780637d1db4a51461053657806388f820201461054c5780638da5cb5b146105855780638ee88c53146105a357806395d89b41146105c357600080fd5b80635342acb4146104b25780636bc87c3a146104eb57806370a0823114610501578063715018a61461052157600080fd5b80633685d419116101a6578063437823ec11610175578063437823ec146103ff5780634549b0391461041f57806349bd5a5e1461043f5780634a74bb021461047357806352390c021461049257600080fd5b80633685d4191461038957806339509351146103a95780633b124fe7146103c95780633bd5d173146103df57600080fd5b80631694505e116101ed5780631694505e146102c657806318160ddd1461031257806323b872dd146103275780632d83811914610347578063313ce5671461036757600080fd5b8063061c82d01461022a57806306fdde031461024c578063095ea7b31461027757806313114a9d146102a757600080fd5b3661022557005b600080fd5b34801561023657600080fd5b5061024a610245366004612369565b610728565b005b34801561025857600080fd5b50610261610760565b60405161026e9190612382565b60405180910390f35b34801561028357600080fd5b506102976102923660046123ef565b6107f2565b604051901515815260200161026e565b3480156102b357600080fd5b50600b545b60405190815260200161026e565b3480156102d257600080fd5b506102fa7f000000000000000000000000000000000000000000000000000000000000000081565b6040516001600160a01b03909116815260200161026e565b34801561031e57600080fd5b506009546102b8565b34801561033357600080fd5b5061029761034236600461241b565b610809565b34801561035357600080fd5b506102b8610362366004612369565b610872565b34801561037357600080fd5b50600e5460405160ff909116815260200161026e565b34801561039557600080fd5b5061024a6103a436600461245c565b6108f6565b3480156103b557600080fd5b506102976103c43660046123ef565b610aad565b3480156103d557600080fd5b506102b8600f5481565b3480156103eb57600080fd5b5061024a6103fa366004612369565b610ae3565b34801561040b57600080fd5b5061024a61041a36600461245c565b610bcd565b34801561042b57600080fd5b506102b861043a36600461248e565b610c1b565b34801561044b57600080fd5b506102fa7f000000000000000000000000000000000000000000000000000000000000000081565b34801561047f57600080fd5b5060135461029790610100900460ff1681565b34801561049e57600080fd5b5061024a6104ad36600461245c565b610ca8565b3480156104be57600080fd5b506102976104cd36600461245c565b6001600160a01b031660009081526006602052604090205460ff1690565b3480156104f757600080fd5b506102b860115481565b34801561050d57600080fd5b506102b861051c36600461245c565b610dfb565b34801561052d57600080fd5b5061024a610e5a565b34801561054257600080fd5b506102b860145481565b34801561055857600080fd5b5061029761056736600461245c565b6001600160a01b031660009081526007602052604090205460ff1690565b34801561059157600080fd5b506000546001600160a01b03166102fa565b3480156105af57600080fd5b5061024a6105be366004612369565b610ebc565b3480156105cf57600080fd5b50610261610eeb565b3480156105e457600080fd5b506102976105f33660046123ef565b610efa565b34801561060457600080fd5b5061024a610f49565b34801561061957600080fd5b506102976106283660046123ef565b61104f565b34801561063957600080fd5b506002546102b8565b34801561064e57600080fd5b5061024a61065d3660046124ba565b61105c565b34801561066e57600080fd5b5061024a61067d366004612369565b6110da565b34801561068e57600080fd5b5061024a61069d366004612369565b61112a565b3480156106ae57600080fd5b506102b86106bd3660046124d5565b6001600160a01b03918216600090815260056020908152604080832093909416825291909152205490565b3480156106f457600080fd5b5061024a61070336600461245c565b6111af565b34801561071457600080fd5b5061024a61072336600461245c565b6111fa565b6000546001600160a01b0316331461075b5760405162461bcd60e51b81526004016107529061250e565b60405180910390fd5b600f55565b6060600c805461076f90612543565b80601f016020809104026020016040519081016040528092919081815260200182805461079b90612543565b80156107e85780601f106107bd576101008083540402835291602001916107e8565b820191906000526020600020905b8154815290600101906020018083116107cb57829003601f168201915b5050505050905090565b60006107ff3384846112d2565b5060015b92915050565b60006108168484846113f6565b610868843361086385604051806060016040528060288152602001612708602891396001600160a01b038a16600090815260056020908152604080832033845290915290205491906116a7565b6112d2565b5060019392505050565b6000600a548211156108d95760405162461bcd60e51b815260206004820152602a60248201527f416d6f756e74206d757374206265206c657373207468616e20746f74616c207260448201526965666c656374696f6e7360b01b6064820152608401610752565b60006108e36116e1565b90506108ef8382611704565b9392505050565b6000546001600160a01b031633146109205760405162461bcd60e51b81526004016107529061250e565b6001600160a01b03811660009081526007602052604090205460ff166109885760405162461bcd60e51b815260206004820152601b60248201527f4163636f756e7420697320616c7265616479206578636c7564656400000000006044820152606401610752565b60005b600854811015610aa957816001600160a01b0316600882815481106109b2576109b261257e565b6000918252602090912001546001600160a01b03161415610a9757600880546109dd906001906125aa565b815481106109ed576109ed61257e565b600091825260209091200154600880546001600160a01b039092169183908110610a1957610a1961257e565b600091825260208083209190910180546001600160a01b0319166001600160a01b039485161790559184168152600482526040808220829055600790925220805460ff191690556008805480610a7157610a716125c1565b600082815260209020810160001990810180546001600160a01b03191690550190555050565b80610aa1816125d7565b91505061098b565b5050565b3360008181526005602090815260408083206001600160a01b038716845290915281205490916107ff9185906108639086611746565b3360008181526007602052604090205460ff1615610b585760405162461bcd60e51b815260206004820152602c60248201527f4578636c75646564206164647265737365732063616e6e6f742063616c6c207460448201526b3434b990333ab731ba34b7b760a11b6064820152608401610752565b6000610b63836117a5565b505050506001600160a01b038416600090815260036020526040902054919250610b8f919050826117f4565b6001600160a01b038316600090815260036020526040902055600a54610bb590826117f4565b600a55600b54610bc59084611746565b600b55505050565b6000546001600160a01b03163314610bf75760405162461bcd60e51b81526004016107529061250e565b6001600160a01b03166000908152600660205260409020805460ff19166001179055565b6000600954831115610c6f5760405162461bcd60e51b815260206004820152601f60248201527f416d6f756e74206d757374206265206c657373207468616e20737570706c79006044820152606401610752565b81610c8e576000610c7f846117a5565b50939550610803945050505050565b6000610c99846117a5565b50929550610803945050505050565b6000546001600160a01b03163314610cd25760405162461bcd60e51b81526004016107529061250e565b6001600160a01b03811660009081526007602052604090205460ff1615610d3b5760405162461bcd60e51b815260206004820152601b60248201527f4163636f756e7420697320616c7265616479206578636c7564656400000000006044820152606401610752565b6001600160a01b03811660009081526003602052604090205415610d95576001600160a01b038116600090815260036020526040902054610d7b90610872565b6001600160a01b0382166000908152600460205260409020555b6001600160a01b03166000818152600760205260408120805460ff191660019081179091556008805491820181559091527ff3f7a9fe364faab93b216da50a3214154f22a0a2b415b23a84c8169e8b636ee30180546001600160a01b0319169091179055565b6001600160a01b03811660009081526007602052604081205460ff1615610e3857506001600160a01b031660009081526004602052604090205490565b6001600160a01b03821660009081526003602052604090205461080390610872565b6000546001600160a01b03163314610e845760405162461bcd60e51b81526004016107529061250e565b600080546040516001600160a01b0390911690600080516020612730833981519152908390a3600080546001600160a01b0319169055565b6000546001600160a01b03163314610ee65760405162461bcd60e51b81526004016107529061250e565b601155565b6060600d805461076f90612543565b60006107ff338461086385604051806060016040528060258152602001612750602591393360009081526005602090815260408083206001600160a01b038d16845290915290205491906116a7565b6001546001600160a01b03163314610faf5760405162461bcd60e51b815260206004820152602360248201527f596f7520646f6e27742068617665207065726d697373696f6e20746f20756e6c6044820152626f636b60e81b6064820152608401610752565b60025442116110005760405162461bcd60e51b815260206004820152601f60248201527f436f6e7472616374206973206c6f636b656420756e74696c20372064617973006044820152606401610752565b600154600080546040516001600160a01b03938416939091169160008051602061273083398151915291a3600154600080546001600160a01b0319166001600160a01b03909216919091179055565b60006107ff3384846113f6565b6000546001600160a01b031633146110865760405162461bcd60e51b81526004016107529061250e565b601380548215156101000261ff00199091161790556040517f53726dfcaf90650aa7eb35524f4d3220f07413c8d6cb404cc8c18bf5591bc159906110cf90831515815260200190565b60405180910390a150565b6000546001600160a01b031633146111045760405162461bcd60e51b81526004016107529061250e565b611124606461111e8360095461183690919063ffffffff16565b90611704565b60145550565b6000546001600160a01b031633146111545760405162461bcd60e51b81526004016107529061250e565b60008054600180546001600160a01b03199081166001600160a01b0384161790915516905561118381426125f2565b600255600080546040516001600160a01b0390911690600080516020612730833981519152908390a350565b6000546001600160a01b031633146111d95760405162461bcd60e51b81526004016107529061250e565b6001600160a01b03166000908152600660205260409020805460ff19169055565b6000546001600160a01b031633146112245760405162461bcd60e51b81526004016107529061250e565b6001600160a01b0381166112895760405162461bcd60e51b815260206004820152602660248201527f4f776e61626c653a206e6577206f776e657220697320746865207a65726f206160448201526564647265737360d01b6064820152608401610752565b600080546040516001600160a01b038085169392169160008051602061273083398151915291a3600080546001600160a01b0319166001600160a01b0392909216919091179055565b6001600160a01b0383166113345760405162461bcd60e51b8152602060048201526024808201527f45524332303a20617070726f76652066726f6d20746865207a65726f206164646044820152637265737360e01b6064820152608401610752565b6001600160a01b0382166113955760405162461bcd60e51b815260206004820152602260248201527f45524332303a20617070726f766520746f20746865207a65726f206164647265604482015261737360f01b6064820152608401610752565b6001600160a01b0383811660008181526005602090815260408083209487168084529482529182902085905590518481527f8c5be1e5ebec7d5bd14f71427d1e84f3dd0314c0f7b2291e5b200ac8c7c3b925910160405180910390a3505050565b6001600160a01b03831661145a5760405162461bcd60e51b815260206004820152602560248201527f45524332303a207472616e736665722066726f6d20746865207a65726f206164604482015264647265737360d81b6064820152608401610752565b6001600160a01b0382166114bc5760405162461bcd60e51b815260206004820152602360248201527f45524332303a207472616e7366657220746f20746865207a65726f206164647260448201526265737360e81b6064820152608401610752565b6000811161151e5760405162461bcd60e51b815260206004820152602960248201527f5472616e7366657220616d6f756e74206d7573742062652067726561746572206044820152687468616e207a65726f60b81b6064820152608401610752565b6000546001600160a01b0384811691161480159061154a57506000546001600160a01b03838116911614155b156115b2576014548111156115b25760405162461bcd60e51b815260206004820152602860248201527f5472616e7366657220616d6f756e74206578636565647320746865206d6178546044820152673c20b6b7bab73a1760c11b6064820152608401610752565b60006115bd30610dfb565b905060145481106115cd57506014545b601554811080159081906115e4575060135460ff16155b801561162257507f00000000000000000000000000000000000000000000000000000000000000006001600160a01b0316856001600160a01b031614155b80156116355750601354610100900460ff165b15611648576015549150611648826118b5565b6001600160a01b03851660009081526006602052604090205460019060ff168061168a57506001600160a01b03851660009081526006602052604090205460ff165b15611693575060005b61169f86868684611953565b505050505050565b600081848411156116cb5760405162461bcd60e51b81526004016107529190612382565b5060006116d884866125aa565b95945050505050565b60008060006116ee611ad0565b90925090506116fd8282611704565b9250505090565b60006108ef83836040518060400160405280601a81526020017f536166654d6174683a206469766973696f6e206279207a65726f000000000000815250611c52565b60008061175383856125f2565b9050838110156108ef5760405162461bcd60e51b815260206004820152601b60248201527f536166654d6174683a206164646974696f6e206f766572666c6f7700000000006044820152606401610752565b60008060008060008060008060006117bc8a611c80565b92509250925060008060006117da8d86866117d56116e1565b611cc2565b919f909e50909c50959a5093985091965092945050505050565b60006108ef83836040518060400160405280601e81526020017f536166654d6174683a207375627472616374696f6e206f766572666c6f7700008152506116a7565b60008261184557506000610803565b6000611851838561260a565b90508261185e8583612629565b146108ef5760405162461bcd60e51b815260206004820152602160248201527f536166654d6174683a206d756c7469706c69636174696f6e206f766572666c6f6044820152607760f81b6064820152608401610752565b6013805460ff1916600117905560006118cf826002611704565b905060006118dd83836117f4565b9050476118e983611d12565b60006118f547836117f4565b90506119018382611eca565b60408051858152602081018390529081018490527f17bbfb9a6069321b6ded73bd96327c9e6b7212a5cd51ff219cd61370acafb5619060600160405180910390a150506013805460ff19169055505050565b8061196057611960611fd0565b6001600160a01b03841660009081526007602052604090205460ff1680156119a157506001600160a01b03831660009081526007602052604090205460ff16155b156119b6576119b1848484611ffe565b611ab4565b6001600160a01b03841660009081526007602052604090205460ff161580156119f757506001600160a01b03831660009081526007602052604090205460ff165b15611a07576119b1848484612124565b6001600160a01b03841660009081526007602052604090205460ff16158015611a4957506001600160a01b03831660009081526007602052604090205460ff16155b15611a59576119b18484846121cd565b6001600160a01b03841660009081526007602052604090205460ff168015611a9957506001600160a01b03831660009081526007602052604090205460ff165b15611aa9576119b1848484612211565b611ab48484846121cd565b80611aca57611aca601054600f55601254601155565b50505050565b600a546009546000918291825b600854811015611c2257826003600060088481548110611aff57611aff61257e565b60009182526020808320909101546001600160a01b031683528201929092526040019020541180611b6a5750816004600060088481548110611b4357611b4361257e565b60009182526020808320909101546001600160a01b03168352820192909252604001902054115b15611b8057600a54600954945094505050509091565b611bc66003600060088481548110611b9a57611b9a61257e565b60009182526020808320909101546001600160a01b0316835282019290925260400190205484906117f4565b9250611c0e6004600060088481548110611be257611be261257e565b60009182526020808320909101546001600160a01b0316835282019290925260400190205483906117f4565b915080611c1a816125d7565b915050611add565b50600954600a54611c3291611704565b821015611c4957600a546009549350935050509091565b90939092509050565b60008183611c735760405162461bcd60e51b81526004016107529190612382565b5060006116d88486612629565b600080600080611c8f85612284565b90506000611c9c866122a0565b90506000611cb482611cae89866117f4565b906117f4565b979296509094509092505050565b6000808080611cd18886611836565b90506000611cdf8887611836565b90506000611ced8888611836565b90506000611cff82611cae86866117f4565b939b939a50919850919650505050505050565b6040805160028082526060820183526000926020830190803683370190505090503081600081518110611d4757611d4761257e565b60200260200101906001600160a01b031690816001600160a01b0316815250507f00000000000000000000000000000000000000000000000000000000000000006001600160a01b031663ad5c46486040518163ffffffff1660e01b8152600401602060405180830381865afa158015611dc5573d6000803e3d6000fd5b505050506040513d601f19601f82011682018060405250810190611de9919061264b565b81600181518110611dfc57611dfc61257e565b60200260200101906001600160a01b031690816001600160a01b031681525050611e47307f0000000000000000000000000000000000000000000000000000000000000000846112d2565b60405163791ac94760e01b81526001600160a01b037f0000000000000000000000000000000000000000000000000000000000000000169063791ac94790611e9c908590600090869030904290600401612668565b600060405180830381600087803b158015611eb657600080fd5b505af115801561169f573d6000803e3d6000fd5b611ef5307f0000000000000000000000000000000000000000000000000000000000000000846112d2565b7f00000000000000000000000000000000000000000000000000000000000000006001600160a01b031663f305d719823085600080611f3c6000546001600160a01b031690565b60405160e088901b6001600160e01b03191681526001600160a01b03958616600482015260248101949094526044840192909252606483015290911660848201524260a482015260c40160606040518083038185885af1158015611fa4573d6000803e3d6000fd5b50505050506040513d601f19601f82011682018060405250810190611fc991906126d9565b5050505050565b600f54158015611fe05750601154155b15611fe757565b600f80546010556011805460125560009182905555565b600080600080600080612010876117a5565b6001600160a01b038f16600090815260046020526040902054959b5093995091975095509350915061204290886117f4565b6001600160a01b038a1660009081526004602090815260408083209390935560039052205461207190876117f4565b6001600160a01b03808b1660009081526003602052604080822093909355908a16815220546120a09086611746565b6001600160a01b0389166000908152600360205260409020556120c2816122bc565b6120cc8483612345565b876001600160a01b0316896001600160a01b03167fddf252ad1be2c89b69c2b068fc378daa952ba7f163c4a11628f55a4df523b3ef8560405161211191815260200190565b60405180910390a3505050505050505050565b600080600080600080612136876117a5565b6001600160a01b038f16600090815260036020526040902054959b5093995091975095509350915061216890876117f4565b6001600160a01b03808b16600090815260036020908152604080832094909455918b1681526004909152205461219e9084611746565b6001600160a01b0389166000908152600460209081526040808320939093556003905220546120a09086611746565b6000806000806000806121df876117a5565b6001600160a01b038f16600090815260036020526040902054959b5093995091975095509350915061207190876117f4565b600080600080600080612223876117a5565b6001600160a01b038f16600090815260046020526040902054959b5093995091975095509350915061225590886117f4565b6001600160a01b038a1660009081526004602090815260408083209390935560039052205461216890876117f4565b6000610803606461111e600f548561183690919063ffffffff16565b6000610803606461111e6011548561183690919063ffffffff16565b60006122c66116e1565b905060006122d48383611836565b306000908152600360205260409020549091506122f19082611746565b3060009081526003602090815260408083209390935560079052205460ff1615612340573060009081526004602052604090205461232f9084611746565b306000908152600460205260409020555b505050565b600a5461235290836117f4565b600a55600b546123629082611746565b600b555050565b60006020828403121561237b57600080fd5b5035919050565b600060208083528351808285015260005b818110156123af57858101830151858201604001528201612393565b818111156123c1576000604083870101525b50601f01601f1916929092016040019392505050565b6001600160a01b03811681146123ec57600080fd5b50565b6000806040838503121561240257600080fd5b823561240d816123d7565b946020939093013593505050565b60008060006060848603121561243057600080fd5b833561243b816123d7565b9250602084013561244b816123d7565b929592945050506040919091013590565b60006020828403121561246e57600080fd5b81356108ef816123d7565b8035801515811461248957600080fd5b919050565b600080604083850312156124a157600080fd5b823591506124b160208401612479565b90509250929050565b6000602082840312156124cc57600080fd5b6108ef82612479565b600080604083850312156124e857600080fd5b82356124f3816123d7565b91506020830135612503816123d7565b809150509250929050565b6020808252818101527f4f776e61626c653a2063616c6c6572206973206e6f7420746865206f776e6572604082015260600190565b600181811c9082168061255757607f821691505b6020821081141561257857634e487b7160e01b600052602260045260246000fd5b50919050565b634e487b7160e01b600052603260045260246000fd5b634e487b7160e01b600052601160045260246000fd5b6000828210156125bc576125bc612594565b500390565b634e487b7160e01b600052603160045260246000fd5b60006000198214156125eb576125eb612594565b5060010190565b6000821982111561260557612605612594565b500190565b600081600019048311821515161561262457612624612594565b500290565b60008261264657634e487b7160e01b600052601260045260246000fd5b500490565b60006020828403121561265d57600080fd5b81516108ef816123d7565b600060a082018783526020878185015260a0604085015281875180845260c086019150828901935060005b818110156126b85784516001600160a01b031683529383019391830191600101612693565b50506001600160a01b03969096166060850152505050608001529392505050565b6000806000606084860312156126ee57600080fd5b835192506020840151915060408401519050925092509256fe45524332303a207472616e7366657220616d6f756e74206578636565647320616c6c6f77616e63658be0079c531659141344cd1fd0a4f28419497f9722a3daafe3b4186f6b6457e045524332303a2064656372656173656420616c6c6f77616e63652062656c6f77207a65726fa164736f6c634300080c000a",
    "linkReferences": {}
  }
}