{
  "abi": [
    {
      "inputs": [
        {
          "internalType": "address",
          "name": "p0",
          "type": "address"
        },
        {
          "internalType": "address",
          "name": "p1",
          "type": "address"
        },
        {
          "internalType": "string",
          "name": "p2",
          "type": "string"
        }
      ],
      "name": "log",
      "outputs": [],
      "stateMutability": "view",
      "type": "function"
    },
    {
      "inputs": [
        {
          "internalType": "address",
          "name": "p0",
          "type": "address"
        },
        {
          "internalType": "address",
          "name": "p1",
          "type": "address"
        },
        {
          "internalType": "address",
          "name": "p2",
          "type": "address"
        }
      ],
      "name": "log",
      "outputs": [],
      "stateMutability": "view",
      "type": "function"
    },
    {
      "inputs": [
        {
          "internalType": "bool",
          "name": "p0",
          "type": "bool"
        },
        {
          "internalType": "uint256",
          "name": "p1",
          "type": "uint256"
        },
        {
          "internalType": "address",
          "name": "p2",
          "type": "address"
        }
      ],
      "name": "log",
      "outputs": [],
      "stateMutability": "view",
      "type": "function"
    },
    {
      "inputs": [
        {
          "internalType": "string",
          "name": "p0",
          "type": "string"
        },
        {
          "internalType": "address",
          "name": "p1",
          "type": "address"
        },
        {
          "internalType": "uint256",
          "name": "p2",
          "type": "uint256"
        }
      ],
      "name": "log",
      "outputs": [],
      "stateMutability": "view",
      "type": "function"
    },
    {
      "inputs": [
        {
          "internalType": "bool",
          "name": "p0",
          "type": "bool"
        },
        {
          "internalType": "bool",
          "name": "p1",
          "type": "bool"
        },
        {
          "internalType": "address",
          "name": "p2",
          "type": "address"
        }
      ],
      "name": "log",
      "outputs": [],
      "stateMutability": "view",
      "type": "function"
    },
    {
      "inputs": [
        {
          "internalType": "bool",
          "name": "p0",
          "type": "bool"
        },
        {
          "internalType": "string",
          "name": "p1",
          "type": "string"
        },
        {
          "internalType": "uint256",
          "name": "p2",
          "type": "uint256"
        }
      ],
      "name": "log",
      "outputs": [],
      "stateMutability": "view",
      "type": "function"
    },
    {
      "inputs": [
        {
          "internalType": "bool",
          "name": "p0",
          "type": "bool"
        },
        {
          "internalType": "bool",
          "name": "p1",
          "type": "bool"
        },
        {
          "internalType": "uint256",
          "name": "p2",
          "type": "uint256"
        }
      ],
      "name": "log",
      "outputs": [],
      "stateMutability": "view",
      "type": "function"
    },
    {
      "inputs": [
        {
          "internalType": "address",
          "name": "p0",
          "type": "address"
        },
        {
          "internalType": "address",
          "name": "p1",
          "type": "address"
        },
        {
          "internalType": "uint256",
          "name": "p2",
          "type": "uint256"
        }
      ],
      "name": "log",
      "outputs": [],
      "stateMutability": "view",
      "type": "function"
    },
    {
      "inputs": [
        {
          "internalType": "bool",
          "name": "p0",
          "type": "bool"
        },
        {
          "internalType": "address",
          "name": "p1",
          "type": "address"
        },
        {
          "internalType": "bool",
          "name": "p2",
          "type": "bool"
        }
      ],
      "name": "log",
      "outputs": [],
      "stateMutability": "view",
      "type": "function"
    },
    {
      "inputs": [
        {
          "internalType": "string",
          "name": "p0",
          "type": "string"
        },
        {
          "internalType": "uint256",
          "name": "p1",
          "type": "uint256"
        },
        {
          "internalType": "address",
          "name": "p2",
          "type": "address"
        }
      ],
      "name": "log",
      "outputs": [],
      "stateMutability": "view",
      "type": "function"
    },
    {
      "inputs": [
        {
          "internalType": "uint256",
          "name": "p0",
          "type": "uint256"
        },
        {
          "internalType": "bool",
          "name": "p1",
          "type": "bool"
        }
      ],
      "name": "log",
      "outputs": [],
      "stateMutability": "view",
      "type": "function"
    },
    {
      "inputs": [
        {
          "internalType": "uint256",
          "name": "p0",
          "type": "uint256"
        },
        {
          "internalType": "bool",
          "name": "p1",
          "type": "bool"
        },
        {
          "internalType": "uint256",
          "name": "p2",
          "type": "uint256"
        }
      ],
      "name": "log",
      "outputs": [],
      "stateMutability": "view",
      "type": "function"
    },
    {
      "inputs": [
        {
          "internalType": "uint256",
          "name": "p0",
          "type": "uint256"
        },
        {
          "internalType": "bool",
          "name": "p1",
          "type": "bool"
        },
        {
          "internalType": "bool",
          "name": "p2",
          "type": "bool"
        }
      ],
      "name": "log",
      "outputs": [],
      "stateMutability": "view",
      "type": "function"
    },
    {
      "inputs": [
        {
          "internalType": "address",
          "name": "p0",
          "type": "address"
        },
        {
          "internalType": "bool",
          "name": "p1",
          "type": "bool"
        },
        {
          "internalType": "string",
          "name": "p2",
          "type": "string"
        }
      ],
      "name": "log",
      "outputs": [],
      "stateMutability": "view",
      "type": "function"
    },
    {
      "inputs": [
        {
          "internalType": "bool",
          "name": "p0",
          "type": "bool"
        },
        {
          "internalType": "bool",
          "name": "p1",
          "type": "bool"
        },
        {
          "internalType": "string",
          "name": "p2",
          "type": "string"
        }
      ],
      "name": "log",
      "outputs": [],
      "stateMutability": "view",
      "type": "function"
    },
    {
      "inputs": [
        {
          "internalType": "bool",
          "name": "p0",
          "type": "bool"
        },
        {
          "internalType": "bool",
          "name": "p1",
          "type": "bool"
        }
      ],
      "name": "log",
      "outputs": [],
      "stateMutability": "view",
      "type": "function"
    },
    {
      "inputs": [
        {
          "internalType": "address",
          "name": "p0",
          "type": "address"
        }
      ],
      "name": "log",
      "outputs": [],
      "stateMutability": "view",
      "type": "function"
    },
    {
      "inputs": [
        {
          "internalType": "string",
          "name": "p0",
          "type": "string"
        },
        {
          "internalType": "string",
          "name": "p1",
          "type": "string"
        },
        {
          "internalType": "string",
          "name": "p2",
          "type": "string"
        }
      ],
      "name": "log",
      "outputs": [],
      "stateMutability": "view",
      "type": "function"
    },
    {
      "inputs": [
        {
          "internalType": "string",
          "name": "p0",
          "type": "string"
        },
        {
          "internalType": "address",
          "name": "p1",
          "type": "address"
        }
      ],
      "name": "log",
      "outputs": [],
      "stateMutability": "view",
      "type": "function"
    },
    {
      "inputs": [
        {
          "internalType": "bool",
          "name": "p0",
          "type": "bool"
        }
      ],
      "name": "log",
      "outputs": [],
      "stateMutability": "view",
      "type": "function"
    },
    {
      "inputs": [
        {
          "internalType": "uint256",
          "name": "p0",
          "type": "uint256"
        },
        {
          "internalType": "bool",
          "name": "p1",
          "type": "bool"
        },
        {
          "internalType": "address",
          "name": "p2",
          "type": "address"
        }
      ],
      "name": "log",
      "outputs": [],
      "stateMutability": "view",
      "type": "function"
    },
    {
      "inputs": [
        {
          "internalType": "bool",
          "name": "p0",
          "type": "bool"
        },
        {
          "internalType": "uint256",
          "name": "p1",
          "type": "uint256"
        },
        {
          "internalType": "uint256",
          "name": "p2",
          "type": "uint256"
        }
      ],
      "name": "log",
      "outputs": [],
      "stateMutability": "view",
      "type": "function"
    },
    {
      "inputs": [
        {
          "internalType": "uint256",
          "name": "p0",
          "type": "uint256"
        },
        {
          "internalType": "string",
          "name": "p1",
          "type": "string"
        },
        {
          "internalType": "uint256",
          "name": "p2",
          "type": "uint256"
        }
      ],
      "name": "log",
      "outputs": [],
      "stateMutability": "view",
      "type": "function"
    },
    {
      "inputs": [
        {
          "internalType": "bool",
          "name": "p0",
          "type": "bool"
        },
        {
          "internalType": "uint256",
          "name": "p1",
          "type": "uint256"
        }
      ],
      "name": "log",
      "outputs": [],
      "stateMutability": "view",
      "type": "function"
    },
    {
      "inputs": [
        {
          "internalType": "string",
          "name": "p0",
          "type": "string"
        }
      ],
      "name": "log",
      "outputs": [],
      "stateMutability": "view",
      "type": "function"
    },
    {
      "inputs": [
        {
          "internalType": "uint256",
          "name": "p0",
          "type": "uint256"
        },
        {
          "internalType": "uint256",
          "name": "p1",
          "type": "uint256"
        },
        {
          "internalType": "bool",
          "name": "p2",
          "type": "bool"
        }
      ],
      "name": "log",
      "outputs": [],
      "stateMutability": "view",
      "type": "function"
    },
    {
      "inputs": [
        {
          "internalType": "string",
          "name": "p0",
          "type": "string"
        },
        {
          "internalType": "string",
          "name": "p1",
          "type": "string"
        }
      ],
      "name": "log",
      "outputs": [],
      "stateMutability": "view",
      "type": "function"
    },
    {
      "inputs": [
        {
          "internalType": "uint256",
          "name": "p0",
          "type": "uint256"
        },
        {
          "internalType": "string",
          "name": "p1",
          "type": "string"
        },
        {
          "internalType": "bool",
          "name": "p2",
          "type": "bool"
        }
      ],
      "name": "log",
      "outputs": [],
      "stateMutability": "view",
      "type": "function"
    },
    {
      "inputs": [
        {
          "internalType": "bool",
          "name": "p0",
          "type": "bool"
        },
        {
          "internalType": "bool",
          "name": "p1",
          "type": "bool"
        },
        {
          "internalType": "bool",
          "name": "p2",
          "type": "bool"
        }
      ],
      "name": "log",
      "outputs": [],
      "stateMutability": "view",
      "type": "function"
    },
    {
      "inputs": [],
      "name": "log",
      "outputs": [],
      "stateMutability": "view",
      "type": "function"
    },
    {
      "inputs": [
        {
          "internalType": "string",
          "name": "p0",
          "type": "string"
        },
        {
          "internalType": "string",
          "name": "p1",
          "type": "string"
        },
        {
          "internalType": "uint256",
          "name": "p2",
          "type": "uint256"
        }
      ],
      "name": "log",
      "outputs": [],
      "stateMutability": "view",
      "type": "function"
    },
    {
      "inputs": [
        {
          "internalType": "string",
          "name": "p0",
          "type": "string"
        },
        {
          "internalType": "uint256",
          "name": "p1",
          "type": "uint256"
        },
        {
          "internalType": "string",
          "name": "p2",
          "type": "string"
        }
      ],
      "name": "log",
      "outputs": [],
      "stateMutability": "view",
      "type": "function"
    },
    {
      "inputs": [
        {
          "internalType": "uint256",
          "name": "p0",
          "type": "uint256"
        },
        {
          "internalType": "address",
          "name": "p1",
          "type": "address"
        },
        {
          "internalType": "uint256",
          "name": "p2",
          "type": "uint256"
        }
      ],
      "name": "log",
      "outputs": [],
      "stateMutability": "view",
      "type": "function"
    },
    {
      "inputs": [
        {
          "internalType": "uint256",
          "name": "p0",
          "type": "uint256"
        },
        {
          "internalType": "uint256",
          "name": "p1",
          "type": "uint256"
        },
        {
          "internalType": "address",
          "name": "p2",
          "type": "address"
        }
      ],
      "name": "log",
      "outputs": [],
      "stateMutability": "view",
      "type": "function"
    },
    {
      "inputs": [
        {
          "internalType": "bool",
          "name": "p0",
          "type": "bool"
        },
        {
          "internalType": "address",
          "name": "p1",
          "type": "address"
        },
        {
          "internalType": "uint256",
          "name": "p2",
          "type": "uint256"
        }
      ],
      "name": "log",
      "outputs": [],
      "stateMutability": "view",
      "type": "function"
    },
    {
      "inputs": [
        {
          "internalType": "uint256",
          "name": "p0",
          "type": "uint256"
        },
        {
          "internalType": "address",
          "name": "p1",
          "type": "address"
        },
        {
          "internalType": "string",
          "name": "p2",
          "type": "string"
        }
      ],
      "name": "log",
      "outputs": [],
      "stateMutability": "view",
      "type": "function"
    },
    {
      "inputs": [
        {
          "internalType": "uint256",
          "name": "p0",
          "type": "uint256"
        },
        {
          "internalType": "string",
          "name": "p1",
          "type": "string"
        }
      ],
      "name": "log",
      "outputs": [],
      "stateMutability": "view",
      "type": "function"
    },
    {
      "inputs": [
        {
          "internalType": "address",
          "name": "p0",
          "type": "address"
        },
        {
          "internalType": "uint256",
          "name": "p1",
          "type": "uint256"
        },
        {
          "internalType": "bool",
          "name": "p2",
          "type": "bool"
        }
      ],
      "name": "log",
      "outputs": [],
      "stateMutability": "view",
      "type": "function"
    },
    {
      "inputs": [
        {
          "internalType": "address",
          "name": "p0",
          "type": "address"
        },
        {
          "internalType": "string",
          "name": "p1",
          "type": "string"
        },
        {
          "internalType": "uint256",
          "name": "p2",
          "type": "uint256"
        }
      ],
      "name": "log",
      "outputs": [],
      "stateMutability": "view",
      "type": "function"
    },
    {
      "inputs": [
        {
          "internalType": "uint256",
          "name": "p0",
          "type": "uint256"
        },
        {
          "internalType": "address",
          "name": "p1",
          "type": "address"
        }
      ],
      "name": "log",
      "outputs": [],
      "stateMutability": "view",
      "type": "function"
    },
    {
      "inputs": [
        {
          "internalType": "uint256",
          "name": "p0",
          "type": "uint256"
        },
        {
          "internalType": "uint256",
          "name": "p1",
          "type": "uint256"
        },
        {
          "internalType": "string",
          "name": "p2",
          "type": "string"
        }
      ],
      "name": "log",
      "outputs": [],
      "stateMutability": "view",
      "type": "function"
    },
    {
      "inputs": [
        {
          "internalType": "address",
          "name": "p0",
          "type": "address"
        },
        {
          "internalType": "string",
          "name": "p1",
          "type": "string"
        }
      ],
      "name": "log",
      "outputs": [],
      "stateMutability": "view",
      "type": "function"
    },
    {
      "inputs": [
        {
          "internalType": "address",
          "name": "p0",
          "type": "address"
        },
        {
          "internalType": "bool",
          "name": "p1",
          "type": "bool"
        }
      ],
      "name": "log",
      "outputs": [],
      "stateMutability": "view",
      "type": "function"
    },
    {
      "inputs": [
        {
          "internalType": "uint256",
          "name": "p0",
          "type": "uint256"
        },
        {
          "internalType": "string",
          "name": "p1",
          "type": "string"
        },
        {
          "internalType": "address",
          "name": "p2",
          "type": "address"
        }
      ],
      "name": "log",
      "outputs": [],
      "stateMutability": "view",
      "type": "function"
    },
    {
      "inputs": [
        {
          "internalType": "address",
          "name": "p0",
          "type": "address"
        },
        {
          "internalType": "uint256",
          "name": "p1",
          "type": "uint256"
        },
        {
          "internalType": "address",
          "name": "p2",
          "type": "address"
        }
      ],
      "name": "log",
      "outputs": [],
      "stateMutability": "view",
      "type": "function"
    },
    {
      "inputs": [
        {
          "internalType": "address",
          "name": "p0",
          "type": "address"
        },
        {
          "internalType": "uint256",
          "name": "p1",
          "type": "uint256"
        }
      ],
      "name": "log",
      "outputs": [],
      "stateMutability": "view",
      "type": "function"
    },
    {
      "inputs": [
        {
          "internalType": "string",
          "name": "p0",
          "type": "string"
        },
        {
          "internalType": "bool",
          "name": "p1",
          "type": "bool"
        },
        {
          "internalType": "bool",
          "name": "p2",
          "type": "bool"
        }
      ],
      "name": "log",
      "outputs": [],
      "stateMutability": "view",
      "type": "function"
    },
    {
      "inputs": [
        {
          "internalType": "bool",
          "name": "p0",
          "type": "bool"
        },
        {
          "internalType": "address",
          "name": "p1",
          "type": "address"
        }
      ],
      "name": "log",
      "outputs": [],
      "stateMutability": "view",
      "type": "function"
    },
    {
      "inputs": [
        {
          "internalType": "uint256",
          "name": "p0",
          "type": "uint256"
        },
        {
          "internalType": "bool",
          "name": "p1",
          "type": "bool"
        },
        {
          "internalType": "string",
          "name": "p2",
          "type": "string"
        }
      ],
      "name": "log",
      "outputs": [],
      "stateMutability": "view",
      "type": "function"
    },
    {
      "inputs": [
        {
          "internalType": "bool",
          "name": "p0",
          "type": "bool"
        },
        {
          "internalType": "string",
          "name": "p1",
          "type": "string"
        }
      ],
      "name": "log",
      "outputs": [],
      "stateMutability": "view",
      "type": "function"
    },
    {
      "inputs": [
        {
          "internalType": "string",
          "name": "p0",
          "type": "string"
        },
        {
          "internalType": "bool",
          "name": "p1",
          "type": "bool"
        },
        {
          "internalType": "address",
          "name": "p2",
          "type": "address"
        }
      ],
      "name": "log",
      "outputs": [],
      "stateMutability": "view",
      "type": "function"
    },
    {
      "inputs": [
        {
          "internalType": "bool",
          "name": "p0",
          "type": "bool"
        },
        {
          "internalType": "string",
          "name": "p1",
          "type": "string"
        },
        {
          "internalType": "address",
          "name": "p2",
          "type": "address"
        }
      ],
      "name": "log",
      "outputs": [],
      "stateMutability": "view",
      "type": "function"
    },
    {
      "inputs": [
        {
          "internalType": "string",
          "name": "p0",
          "type": "string"
        },
        {
          "internalType": "string",
          "name": "p1",
          "type": "string"
        },
        {
          "internalType": "address",
          "name": "p2",
          "type": "address"
        }
      ],
      "name": "log",
      "outputs": [],
      "stateMutability": "view",
      "type": "function"
    },
    {
      "inputs": [
        {
          "internalType": "uint256",
          "name": "p0",
          "type": "uint256"
        },
        {
          "internalType": "address",
          "name": "p1",
          "type": "address"
        },
        {
          "internalType": "bool",
          "name": "p2",
          "type": "bool"
        }
      ],
      "name": "log",
      "outputs": [],
      "stateMutability": "view",
      "type": "function"
    },
    {
      "inputs": [
        {
          "internalType": "address",
          "name": "p0",
          "type": "address"
        },
        {
          "internalType": "bool",
          "name": "p1",
          "type": "bool"
        },
        {
          "internalType": "uint256",
          "name": "p2",
          "type": "uint256"
        }
      ],
      "name": "log",
      "outputs": [],
      "stateMutability": "view",
      "type": "function"
    },
    {
      "inputs": [
        {
          "internalType": "address",
          "name": "p0",
          "type": "address"
        },
        {
          "internalType": "uint256",
          "name": "p1",
          "type": "uint256"
        },
        {
          "internalType": "string",
          "name": "p2",
          "type": "string"
        }
      ],
      "name": "log",
      "outputs": [],
      "stateMutability": "view",
      "type": "function"
    },
    {
      "inputs": [
        {
          "internalType": "bool",
          "name": "p0",
          "type": "bool"
        },
        {
          "internalType": "string",
          "name": "p1",
          "type": "string"
        },
        {
          "internalType": "string",
          "name": "p2",
          "type": "string"
        }
      ],
      "name": "log",
      "outputs": [],
      "stateMutability": "view",
      "type": "function"
    },
    {
      "inputs": [
        {
          "internalType": "string",
          "name": "p0",
          "type": "string"
        },
        {
          "internalType": "string",
          "name": "p1",
          "type": "string"
        },
        {
          "internalType": "bool",
          "name": "p2",
          "type": "bool"
        }
      ],
      "name": "log",
      "outputs": [],
      "stateMutability": "view",
      "type": "function"
    },
    {
      "inputs": [
        {
          "internalType": "uint256",
          "name": "p0",
          "type": "uint256"
        },
        {
          "internalType": "string",
          "name": "p1",
          "type": "string"
        },
        {
          "internalType": "string",
          "name": "p2",
          "type": "string"
        }
      ],
      "name": "log",
      "outputs": [],
      "stateMutability": "view",
      "type": "function"
    },
    {
      "inputs": [
        {
          "internalType": "string",
          "name": "p0",
          "type": "string"
        },
        {
          "internalType": "uint256",
          "name": "p1",
          "type": "uint256"
        }
      ],
      "name": "log",
      "outputs": [],
      "stateMutability": "view",
      "type": "function"
    },
    {
      "inputs": [
        {
          "internalType": "address",
          "name": "p0",
          "type": "address"
        },
        {
          "internalType": "uint256",
          "name": "p1",
          "type": "uint256"
        },
        {
          "internalType": "uint256",
          "name": "p2",
          "type": "uint256"
        }
      ],
      "name": "log",
      "outputs": [],
      "stateMutability": "view",
      "type": "function"
    },
    {
      "inputs": [
        {
          "internalType": "uint256",
          "name": "p0",
          "type": "uint256"
        },
        {
          "internalType": "address",
          "name": "p1",
          "type": "address"
        },
        {
          "internalType": "address",
          "name": "p2",
          "type": "address"
        }
      ],
      "name": "log",
      "outputs": [],
      "stateMutability": "view",
      "type": "function"
    },
    {
      "inputs": [
        {
          "internalType": "string",
          "name": "p0",
          "type": "string"
        },
        {
          "internalType": "bool",
          "name": "p1",
          "type": "bool"
        }
      ],
      "name": "log",
      "outputs": [],
      "stateMutability": "view",
      "type": "function"
    },
    {
      "inputs": [
        {
          "internalType": "bool",
          "name": "p0",
          "type": "bool"
        },
        {
          "internalType": "uint256",
          "name": "p1",
          "type": "uint256"
        },
        {
          "internalType": "string",
          "name": "p2",
          "type": "string"
        }
      ],
      "name": "log",
      "outputs": [],
      "stateMutability": "view",
      "type": "function"
    },
    {
      "inputs": [
        {
          "internalType": "string",
          "name": "p0",
          "type": "string"
        },
        {
          "internalType": "address",
          "name": "p1",
          "type": "address"
        },
        {
          "internalType": "bool",
          "name": "p2",
          "type": "bool"
        }
      ],
      "name": "log",
      "outputs": [],
      "stateMutability": "view",
      "type": "function"
    },
    {
      "inputs": [
        {
          "internalType": "string",
          "name": "p0",
          "type": "string"
        },
        {
          "internalType": "bool",
          "name": "p1",
          "type": "bool"
        },
        {
          "internalType": "uint256",
          "name": "p2",
          "type": "uint256"
        }
      ],
      "name": "log",
      "outputs": [],
      "stateMutability": "view",
      "type": "function"
    },
    {
      "inputs": [
        {
          "internalType": "string",
          "name": "p0",
          "type": "string"
        },
        {
          "internalType": "uint256",
          "name": "p1",
          "type": "uint256"
        },
        {
          "internalType": "uint256",
          "name": "p2",
          "type": "uint256"
        }
      ],
      "name": "log",
      "outputs": [],
      "stateMutability": "view",
      "type": "function"
    },
    {
      "inputs": [
        {
          "internalType": "string",
          "name": "p0",
          "type": "string"
        },
        {
          "internalType": "uint256",
          "name": "p1",
          "type": "uint256"
        },
        {
          "internalType": "bool",
          "name": "p2",
          "type": "bool"
        }
      ],
      "name": "log",
      "outputs": [],
      "stateMutability": "view",
      "type": "function"
    },
    {
      "inputs": [
        {
          "internalType": "address",
          "name": "p0",
          "type": "address"
        },
        {
          "internalType": "string",
          "name": "p1",
          "type": "string"
        },
        {
          "internalType": "bool",
          "name": "p2",
          "type": "bool"
        }
      ],
      "name": "log",
      "outputs": [],
      "stateMutability": "view",
      "type": "function"
    },
    {
      "inputs": [
        {
          "internalType": "uint256",
          "name": "p0",
          "type": "uint256"
        },
        {
          "internalType": "uint256",
          "name": "p1",
          "type": "uint256"
        },
        {
          "internalType": "uint256",
          "name": "p2",
          "type": "uint256"
        }
      ],
      "name": "log",
      "outputs": [],
      "stateMutability": "view",
      "type": "function"
    },
    {
      "inputs": [
        {
          "internalType": "bool",
          "name": "p0",
          "type": "bool"
        },
        {
          "internalType": "address",
          "name": "p1",
          "type": "address"
        },
        {
          "internalType": "address",
          "name": "p2",
          "type": "address"
        }
      ],
      "name": "log",
      "outputs": [],
      "stateMutability": "view",
      "type": "function"
    },
    {
      "inputs": [
        {
          "internalType": "address",
          "name": "p0",
          "type": "address"
        },
        {
          "internalType": "address",
          "name": "p1",
          "type": "address"
        }
      ],
      "name": "log",
      "outputs": [],
      "stateMutability": "view",
      "type": "function"
    },
    {
      "inputs": [
        {
          "internalType": "bool",
          "name": "p0",
          "type": "bool"
        },
        {
          "internalType": "string",
          "name": "p1",
          "type": "string"
        },
        {
          "internalType": "bool",
          "name": "p2",
          "type": "bool"
        }
      ],
      "name": "log",
      "outputs": [],
      "stateMutability": "view",
      "type": "function"
    },
    {
      "inputs": [
        {
          "internalType": "bool",
          "name": "p0",
          "type": "bool"
        },
        {
          "internalType": "address",
          "name": "p1",
          "type": "address"
        },
        {
          "internalType": "string",
          "name": "p2",
          "type": "string"
        }
      ],
      "name": "log",
      "outputs": [],
      "stateMutability": "view",
      "type": "function"
    },
    {
      "inputs": [
        {
          "internalType": "string",
          "name": "p0",
          "type": "string"
        },
        {
          "internalType": "address",
          "name": "p1",
          "type": "address"
        },
        {
          "internalType": "string",
          "name": "p2",
          "type": "string"
        }
      ],
      "name": "log",
      "outputs": [],
      "stateMutability": "view",
      "type": "function"
    },
    {
      "inputs": [
        {
          "internalType": "string",
          "name": "p0",
          "type": "string"
        },
        {
          "internalType": "bool",
          "name": "p1",
          "type": "bool"
        },
        {
          "internalType": "string",
          "name": "p2",
          "type": "string"
        }
      ],
      "name": "log",
      "outputs": [],
      "stateMutability": "view",
      "type": "function"
    },
    {
      "inputs": [
        {
          "internalType": "bool",
          "name": "p0",
          "type": "bool"
        },
        {
          "internalType": "uint256",
          "name": "p1",
          "type": "uint256"
        },
        {
          "internalType": "bool",
          "name": "p2",
          "type": "bool"
        }
      ],
      "name": "log",
      "outputs": [],
      "stateMutability": "view",
      "type": "function"
    },
    {
      "inputs": [
        {
          "internalType": "address",
          "name": "p0",
          "type": "address"
        },
        {
          "internalType": "bool",
          "name": "p1",
          "type": "bool"
        },
        {
          "internalType": "bool",
          "name": "p2",
          "type": "bool"
        }
      ],
      "name": "log",
      "outputs": [],
      "stateMutability": "view",
      "type": "function"
    },
    {
      "inputs": [
        {
          "internalType": "address",
          "name": "p0",
          "type": "address"
        },
        {
          "internalType": "string",
          "name": "p1",
          "type": "string"
        },
        {
          "internalType": "address",
          "name": "p2",
          "type": "address"
        }
      ],
      "name": "log",
      "outputs": [],
      "stateMutability": "view",
      "type": "function"
    },
    {
      "inputs": [
        {
          "internalType": "address",
          "name": "p0",
          "type": "address"
        },
        {
          "internalType": "bool",
          "name": "p1",
          "type": "bool"
        },
        {
          "internalType": "address",
          "name": "p2",
          "type": "address"
        }
      ],
      "name": "log",
      "outputs": [],
      "stateMutability": "view",
      "type": "function"
    },
    {
      "inputs": [
        {
          "internalType": "uint256",
          "name": "p0",
          "type": "uint256"
        },
        {
          "internalType": "uint256",
          "name": "p1",
          "type": "uint256"
        }
      ],
      "name": "log",
      "outputs": [],
      "stateMutability": "view",
      "type": "function"
    },
    {
      "inputs": [
        {
          "internalType": "uint256",
          "name": "p0",
          "type": "uint256"
        }
      ],
      "name": "log",
      "outputs": [],
      "stateMutability": "view",
      "type": "function"
    },
    {
      "inputs": [
        {
          "internalType": "address",
          "name": "p0",
          "type": "address"
        },
        {
          "internalType": "string",
          "name": "p1",
          "type": "string"
        },
        {
          "internalType": "string",
          "name": "p2",
          "type": "string"
        }
      ],
      "name": "log",
      "outputs": [],
      "stateMutability": "view",
      "type": "function"
    },
    {
      "inputs": [
        {
          "internalType": "string",
          "name": "p0",
          "type": "string"
        },
        {
          "internalType": "address",
          "name": "p1",
          "type": "address"
        },
        {
          "internalType": "address",
          "name": "p2",
          "type": "address"
        }
      ],
      "name": "log",
      "outputs": [],
      "stateMutability": "view",
      "type": "function"
    },
    {
      "inputs": [
        {
          "internalType": "address",
          "name": "p0",
          "type": "address"
        }
      ],
      "name": "logAddress",
      "outputs": [],
      "stateMutability": "view",
      "type": "function"
    },
    {
      "inputs": [
        {
          "internalType": "bool",
          "name": "p0",
          "type": "bool"
        }
      ],
      "name": "logBool",
      "outputs": [],
      "stateMutability": "view",
      "type": "function"
    },
    {
      "inputs": [
        {
          "internalType": "bytes",
          "name": "p0",
          "type": "bytes"
        }
      ],
      "name": "logBytes",
      "outputs": [],
      "stateMutability": "view",
      "type": "function"
    },
    {
      "inputs": [
        {
          "internalType": "bytes1",
          "name": "p0",
          "type": "bytes1"
        }
      ],
      "name": "logBytes1",
      "outputs": [],
      "stateMutability": "view",
      "type": "function"
    },
    {
      "inputs": [
        {
          "internalType": "bytes10",
          "name": "p0",
          "type": "bytes10"
        }
      ],
      "name": "logBytes10",
      "outputs": [],
      "stateMutability": "view",
      "type": "function"
    },
    {
      "inputs": [
        {
          "internalType": "bytes11",
          "name": "p0",
          "type": "bytes11"
        }
      ],
      "name": "logBytes11",
      "outputs": [],
      "stateMutability": "view",
      "type": "function"
    },
    {
      "inputs": [
        {
          "internalType": "bytes12",
          "name": "p0",
          "type": "bytes12"
        }
      ],
      "name": "logBytes12",
      "outputs": [],
      "stateMutability": "view",
      "type": "function"
    },
    {
      "inputs": [
        {
          "internalType": "bytes13",
          "name": "p0",
          "type": "bytes13"
        }
      ],
      "name": "logBytes13",
      "outputs": [],
      "stateMutability": "view",
      "type": "function"
    },
    {
      "inputs": [
        {
          "internalType": "bytes14",
          "name": "p0",
          "type": "bytes14"
        }
      ],
      "name": "logBytes14",
      "outputs": [],
      "stateMutability": "view",
      "type": "function"
    },
    {
      "inputs": [
        {
          "internalType": "bytes15",
          "name": "p0",
          "type": "bytes15"
        }
      ],
      "name": "logBytes15",
      "outputs": [],
      "stateMutability": "view",
      "type": "function"
    },
    {
      "inputs": [
        {
          "internalType": "bytes16",
          "name": "p0",
          "type": "bytes16"
        }
      ],
      "name": "logBytes16",
      "outputs": [],
      "stateMutability": "view",
      "type": "function"
    },
    {
      "inputs": [
        {
          "internalType": "bytes17",
          "name": "p0",
          "type": "bytes17"
        }
      ],
      "name": "logBytes17",
      "outputs": [],
      "stateMutability": "view",
      "type": "function"
    },
    {
      "inputs": [
        {
          "internalType": "bytes18",
          "name": "p0",
          "type": "bytes18"
        }
      ],
      "name": "logBytes18",
      "outputs": [],
      "stateMutability": "view",
      "type": "function"
    },
    {
      "inputs": [
        {
          "internalType": "bytes19",
          "name": "p0",
          "type": "bytes19"
        }
      ],
      "name": "logBytes19",
      "outputs": [],
      "stateMutability": "view",
      "type": "function"
    },
    {
      "inputs": [
        {
          "internalType": "bytes2",
          "name": "p0",
          "type": "bytes2"
        }
      ],
      "name": "logBytes2",
      "outputs": [],
      "stateMutability": "view",
      "type": "function"
    },
    {
      "inputs": [
        {
          "internalType": "bytes20",
          "name": "p0",
          "type": "bytes20"
        }
      ],
      "name": "logBytes20",
      "outputs": [],
      "stateMutability": "view",
      "type": "function"
    },
    {
      "inputs": [
        {
          "internalType": "bytes21",
          "name": "p0",
          "type": "bytes21"
        }
      ],
      "name": "logBytes21",
      "outputs": [],
      "stateMutability": "view",
      "type": "function"
    },
    {
      "inputs": [
        {
          "internalType": "bytes22",
          "name": "p0",
          "type": "bytes22"
        }
      ],
      "name": "logBytes22",
      "outputs": [],
      "stateMutability": "view",
      "type": "function"
    },
    {
      "inputs": [
        {
          "internalType": "bytes23",
          "name": "p0",
          "type": "bytes23"
        }
      ],
      "name": "logBytes23",
      "outputs": [],
      "stateMutability": "view",
      "type": "function"
    },
    {
      "inputs": [
        {
          "internalType": "bytes24",
          "name": "p0",
          "type": "bytes24"
        }
      ],
      "name": "logBytes24",
      "outputs": [],
      "stateMutability": "view",
      "type": "function"
    },
    {
      "inputs": [
        {
          "internalType": "bytes25",
          "name": "p0",
          "type": "bytes25"
        }
      ],
      "name": "logBytes25",
      "outputs": [],
      "stateMutability": "view",
      "type": "function"
    },
    {
      "inputs": [
        {
          "internalType": "bytes26",
          "name": "p0",
          "type": "bytes26"
        }
      ],
      "name": "logBytes26",
      "outputs": [],
      "stateMutability": "view",
      "type": "function"
    },
    {
      "inputs": [
        {
          "internalType": "bytes27",
          "name": "p0",
          "type": "bytes27"
        }
      ],
      "name": "logBytes27",
      "outputs": [],
      "stateMutability": "view",
      "type": "function"
    },
    {
      "inputs": [
        {
          "internalType": "bytes28",
          "name": "p0",
          "type": "bytes28"
        }
      ],
      "name": "logBytes28",
      "outputs": [],
      "stateMutability": "view",
      "type": "function"
    },
    {
      "inputs": [
        {
          "internalType": "bytes29",
          "name": "p0",
          "type": "bytes29"
        }
      ],
      "name": "logBytes29",
      "outputs": [],
      "stateMutability": "view",
      "type": "function"
    },
    {
      "inputs": [
        {
          "internalType": "bytes3",
          "name": "p0",
          "type": "bytes3"
        }
      ],
      "name": "logBytes3",
      "outputs": [],
      "stateMutability": "view",
      "type": "function"
    },
    {
      "inputs": [
        {
          "internalType": "bytes30",
          "name": "p0",
          "type": "bytes30"
        }
      ],
      "name": "logBytes30",
      "outputs": [],
      "stateMutability": "view",
      "type": "function"
    },
    {
      "inputs": [
        {
          "internalType": "bytes31",
          "name": "p0",
          "type": "bytes31"
        }
      ],
      "name": "logBytes31",
      "outputs": [],
      "stateMutability": "view",
      "type": "function"
    },
    {
      "inputs": [
        {
          "internalType": "bytes32",
          "name": "p0",
          "type": "bytes32"
        }
      ],
      "name": "logBytes32",
      "outputs": [],
      "stateMutability": "view",
      "type": "function"
    },
    {
      "inputs": [
        {
          "internalType": "bytes4",
          "name": "p0",
          "type": "bytes4"
        }
      ],
      "name": "logBytes4",
      "outputs": [],
      "stateMutability": "view",
      "type": "function"
    },
    {
      "inputs": [
        {
          "internalType": "bytes5",
          "name": "p0",
          "type": "bytes5"
        }
      ],
      "name": "logBytes5",
      "outputs": [],
      "stateMutability": "view",
      "type": "function"
    },
    {
      "inputs": [
        {
          "internalType": "bytes6",
          "name": "p0",
          "type": "bytes6"
        }
      ],
      "name": "logBytes6",
      "outputs": [],
      "stateMutability": "view",
      "type": "function"
    },
    {
      "inputs": [
        {
          "internalType": "bytes7",
          "name": "p0",
          "type": "bytes7"
        }
      ],
      "name": "logBytes7",
      "outputs": [],
      "stateMutability": "view",
      "type": "function"
    },
    {
      "inputs": [
        {
          "internalType": "bytes8",
          "name": "p0",
          "type": "bytes8"
        }
      ],
      "name": "logBytes8",
      "outputs": [],
      "stateMutability": "view",
      "type": "function"
    },
    {
      "inputs": [
        {
          "internalType": "bytes9",
          "name": "p0",
          "type": "bytes9"
        }
      ],
      "name": "logBytes9",
      "outputs": [],
      "stateMutability": "view",
      "type": "function"
    },
    {
      "inputs": [
        {
          "internalType": "int256",
          "name": "p0",
          "type": "int256"
        }
      ],
      "name": "logInt",
      "outputs": [],
      "stateMutability": "view",
      "type": "function"
    },
    {
      "inputs": [
        {
          "internalType": "string",
          "name": "p0",
          "type": "string"
        }
      ],
      "name": "logString",
      "outputs": [],
      "stateMutability": "view",
      "type": "function"
    },
    {
      "inputs": [
        {
          "internalType": "uint256",
          "name": "p0",
          "type": "uint256"
        }
      ],
      "name": "logUint",
      "outputs": [],
      "stateMutability": "view",
      "type": "function"
    }
  ],
  "bytecode": {
    "object": "0x608060405234801561001057600080fd5b5061511f806100206000396000f3fe608060405234801561001057600080fd5b506004361061074c5760003560e01c80637656d6c7116103be578063c3b55635116101ff578063de9a927011610125578063f11699ed116100b8578063fb77226511610087578063fb77226514610fbe578063fba3ad3914610fd1578063fc372f9f14610fe4578063fcec75e014610ff757600080fd5b8063f11699ed14610f85578063f666715a14610f98578063f82c50f114610cd9578063f89a532f14610fab57600080fd5b8063e8defba9116100f4578063e8defba914610f39578063eb830c9214610f4c578063ecb8567e14610f5f578063f08744e814610f7257600080fd5b8063de9a927014610eed578063e0e9ad4f14610f00578063e17bf95614610f13578063e298f47d14610f2657600080fd5b8063cf020fb11161019d578063d86526421161016c578063d865264214610ea1578063daf0d4aa14610eb4578063dbb4c24714610ec7578063dc08b6a714610eda57600080fd5b8063cf020fb114610e55578063d1ed7a3c14610e68578063d276366714610e7b578063d363562814610e8e57600080fd5b8063c91d5ed4116101d9578063c91d5ed414610e09578063c95958d614610e1c578063ca47c4eb14610e2f578063ca7733b114610e4257600080fd5b8063c3b5563514610dd0578063c3fc397014610de3578063c4340ef614610df657600080fd5b80639902e47f116102e4578063aea9963f11610282578063b60e72cc11610251578063b60e72cc14610d97578063b69bcaf614610daa578063ba7ab84e1461092e578063bcfd9be014610dbd57600080fd5b8063aea9963f14610d4b578063b076847f14610d5e578063b0e0f9b514610d71578063b115611f14610d8457600080fd5b80639b6ec042116102be5780639b6ec04214610cff5780639c4f99fb14610d125780639dc2a89714610d25578063a1f2e8aa14610d3857600080fd5b80639902e47f14610cc65780639905b74414610cd95780639b5e943e14610cec57600080fd5b80638309e8a81161035c5780638feac5251161032b5780638feac52514610c7a578063932bbb3814610c8d5780639591b95314610ca057806395ed019514610cb357600080fd5b80638309e8a814610c2e578063850b7ad614610c41578063853c484914610c545780638577502114610c6757600080fd5b80637afac959116103985780637afac95914610be25780637bc0d84814610bf5578063807ab43414610c0857806381fc864814610c1b57600080fd5b80637656d6c714610ba95780637782fa2d14610bbc5780637a18764114610bcf57600080fd5b8063382f9a3411610593578063591a3da2116104b95780636525b5f51161044c5780636f4171c91161041b5780636f4171c914610b5d57806371d04af214610b70578063759f86bb14610b8357806375b605d314610b9657600080fd5b80636525b5f514610b11578063678209a814610b2457806367dd6ff114610b3757806369276c8614610b4a57600080fd5b80635f7b9afb116104885780635f7b9afb14610ad85780635f91b0af146108cf57806363cb41f914610aeb578063643fd0df14610afe57600080fd5b8063591a3da214610a8c5780635970e08914610a9f5780635a9b5ed514610ab25780635c96b33114610ac557600080fd5b80634979b0371161053157806350a138df1161050057806350a138df14610a4b57806351973ec914610a5e5780635583be2e14610a665780635821efa114610a7957600080fd5b80634979b037146109ff5780634b5c427714610a125780634ceda75a14610a255780635070969814610a3857600080fd5b806341304fac1161056d57806341304fac146107b25780634574afab146109c65780634766da72146109d95780634942adc6146109ec57600080fd5b8063382f9a341461098d578063399174d3146109a05780633ceaba65146109b357600080fd5b806320098014116106785780632d21d6f71161061657806334c1d81b116105e557806334c1d81b1461094157806335085f7b14610954578063371033671461096757806337aa7d4c1461097a57600080fd5b80632d21d6f7146108f55780633052c08f14610908578063319af3331461091b57806332458eed1461092e57600080fd5b80632555fa46116106525780632555fa46146108a95780632a110e83146108bc5780632c2ecbc2146108cf5780632ced7cef146108e257600080fd5b806320098014146108705780632071865014610883578063212255cc1461089657600080fd5b80631078f68d116106f057806318c9c746116106bf57806318c9c746146108245780631c7ec448146108375780631c9d7eb31461084a5780631f8d73121461085d57600080fd5b80631078f68d146107d85780631093ee11146107eb57806312f21602146107fe57806317fe61851461081157600080fd5b8063088ef9d21161072c578063088ef9d21461078c5780630977aefc1461079f5780630bb563d6146107b25780630d26b925146107c557600080fd5b80627150be14610751578062f56bc914610766578063018c84c214610779575b600080fd5b61076461075f366004613358565b61100a565b005b6107646107743660046133b5565b611055565b6107646107873660046133e5565b6110a7565b61076461079a366004613438565b6110fe565b6107646107ad36600461346b565b611155565b6107646107c0366004613496565b61119f565b6107646107d33660046134d2565b6111e2565b6107646107e6366004613528565b611229565b6107646107f9366004613554565b611281565b61076461080c3660046135aa565b6112c8565b61076461081f3660046135d6565b611318565b610764610832366004613602565b61136f565b61076461084536600461363c565b6113c7565b610764610858366004613689565b61140e565b61076461086b3660046136b5565b61145a565b61076461087e3660046136df565b6114a3565b610764610891366004613704565b6114f2565b6107646108a4366004613729565b611542565b6107646108b7366004613755565b611589565b6107646108ca366004613773565b6115d0565b6107646108dd36600461379d565b611619565b6107646108f03660046137b8565b611661565b610764610903366004613835565b6116a8565b61076461091636600461384e565b6116ed565b61076461092936600461387c565b61173a565b61076461093c3660046138c0565b61177f565b61076461094f3660046138db565b6117c0565b610764610962366004613905565b611809565b61076461097536600461392a565b611860565b61076461098836600461395d565b6118af565b61076461099b36600461398f565b6118f6565b6107646109ae3660046139b6565b61193c565b6107646109c13660046139e0565b611984565b6107646109d4366004613a0a565b6119cd565b6107646109e7366004613a34565b611a16565b6107646109fa366004613a60565b611a65565b610764610a0d366004613a8a565b611aae565b610764610a20366004613ab6565b611af9565b610764610a33366004613b19565b611b3e565b610764610a46366004613b66565b611b85565b610764610a59366004613b92565b611bd6565b610764611c1f565b610764610a74366004613bbc565b611c53565b610764610a87366004613be6565b611c9c565b610764610a9a366004613c41565b611ce3565b610764610aad366004613c6b565b611d2c565b610764610ac0366004613cc0565b611d73565b610764610ad3366004613ce5565b611dc9565b610764610ae6366004613d11565b611e1f565b610764610af9366004613d2f565b611e76565b610764610b0c366004613d54565b611ebd565b610764610b1f366004613835565b611f02565b610764610b32366004613d90565b611f47565b610764610b45366004613dc3565b611f9e565b610764610b58366004613de1565b611fe5565b610764610b6b366004613e04565b612034565b610764610b7e366004613e2e565b61207d565b610764610b91366004613e67565b6120c4565b610764610ba4366004613e9e565b612109565b610764610bb7366004613eba565b612159565b610764610bca366004613ee4565b6121a2565b610764610bdd366004613f0e565b6121eb565b610764610bf0366004613f34565b612230565b610764610c03366004613f81565b612277565b610764610c16366004613f9f565b6122ce565b610764610c29366004613fcc565b61231a565b610764610c3c366004613ff0565b61235d565b610764610c4f36600461400c565b6123ac565b610764610c62366004614052565b6123f3565b610764610c7536600461407c565b612443565b610764610c883660046140a1565b61248a565b610764610c9b3660046140bd565b6124cf565b610764610cae366004614103565b612516565b610764610cc136600461413c565b61255d565b610764610cd4366004614197565b6125a4565b610764610ce7366004613835565b6125ed565b610764610cfa3660046141c1565b612632565b610764610d0d3660046141eb565b61267b565b610764610d20366004614210565b6126d2565b610764610d3336600461422e565b612729565b610764610d46366004614258565b612772565b610764610d59366004614298565b6127b9565b610764610d6c3660046142c2565b612802565b610764610d7f3660046142fc565b612849565b610764610d92366004614357565b612890565b610764610da536600461438a565b6128d7565b610764610db83660046143ce565b61291c565b610764610dcb3660046143ec565b612972565b610764610dde366004614411565b6129c9565b610764610df1366004614455565b612a0e565b610764610e04366004614473565b612a55565b610764610e17366004614498565b612a99565b610764610e2a3660046144de565b612ae0565b610764610e3d366004614524565b612b27565b610764610e50366004614571565b612b6e565b610764610e633660046145be565b612bb5565b610764610e763660046145f7565b612bfc565b610764610e89366004614623565b612c4a565b610764610e9c366004614641565b612ca2565b610764610eaf36600461466a565b612cea565b610764610ec2366004614694565b612d33565b610764610ed53660046146b0565b612d83565b610764610ee83660046146ce565b612dca565b610764610efb3660046146f8565b612e13565b610764610f0e366004614716565b612e5a565b610764610f2136600461475c565b612ea1565b610764610f343660046147a4565b612ee4565b610764610f473660046147ea565b612f2b565b610764610f5a366004614808565b612f7b565b610764610f6d366004614826565b612fd3565b610764610f80366004614855565b613021565b610764610f93366004614873565b613068565b610764610fa6366004614891565b6130c0565b610764610fb93660046148b3565b613106565b610764610fcc3660046148dd565b61314f565b610764610fdf3660046148fb565b613196565b610764610ff2366004614925565b6131df565b61076461100536600461494d565b613226565b611050838383604051602401611022939291906149e0565b60408051601f198184030181529190526020810180516001600160e01b03166238a85f60e11b179052613269565b505050565b6040516cffffffffffffffffffffffffff19821660248201526110a49060440160408051601f198184030181529190526020810180516001600160e01b0316635e6b5a3360e01b179052613269565b50565b6040516001600160a01b0380851660248301528084166044830152821660648201526110509060840160408051601f198184030181529190526020810180516001600160e01b031662c6426160e11b179052613269565b6040518315156024820152604481018390526001600160a01b03821660648201526110509060840160408051601f198184030181529190526020810180516001600160e01b031663c4d2350760e01b179052613269565b60405167ffffffffffffffff19821660248201526110a49060440160408051601f198184030181529190526020810180516001600160e01b0316633c6cd6cd60e21b179052613269565b6110a4816040516024016111b39190614a15565b60408051601f198184030181529190526020810180516001600160e01b031663104c13eb60e21b179052613269565b6110508383836040516024016111fa93929190614a28565b60408051601f198184030181529190526020810180516001600160e01b03166307c8121760e01b179052613269565b604051831515602482015282151560448201526001600160a01b03821660648201526110509060840160408051601f198184030181529190526020810180516001600160e01b0316631078f68d60e01b179052613269565b61105083838360405160240161129993929190614a56565b60408051601f198184030181529190526020810180516001600160e01b031663300e0aab60e21b179052613269565b60405183151560248201528215156044820152606481018290526110509060840160408051601f198184030181529190526020810180516001600160e01b031663b01365bb60e01b179052613269565b6040516001600160a01b03808516602483015283166044820152606481018290526110509060840160408051601f198184030181529190526020810180516001600160e01b031663361b36b960e11b179052613269565b60405183151560248201526001600160a01b038316604482015281151560648201526110509060840160408051601f198184030181529190526020810180516001600160e01b0316630c64e3a360e11b179052613269565b6110508383836040516024016113df93929190614a81565b60408051601f198184030181529190526020810180516001600160e01b031663e3849f7960e01b179052613269565b6040516024810183905281151560448201526114569060640160408051601f198184030181529190526020810180516001600160e01b031663079b753b60e21b179052613269565b5050565b6040516001600160801b0319821660248201526110a49060440160408051601f198184030181529190526020810180516001600160e01b0316631997184160e21b179052613269565b604051602481018490528215156044820152606481018290526110509060840160408051601f198184030181529190526020810180516001600160e01b0316632d26cc9160e11b179052613269565b60405160248101849052821515604482015281151560648201526110509060840160408051601f198184030181529190526020810180516001600160e01b03166306ae756760e51b179052613269565b61105083838360405160240161155a93929190614ab4565b60408051601f198184030181529190526020810180516001600160e01b0316630848957360e21b179052613269565b6110508383836040516024016115a193929190614ae0565b60408051601f198184030181529190526020810180516001600160e01b03166312aafd2360e11b179052613269565b604051821515602482015281151560448201526114569060640160408051601f198184030181529190526020810180516001600160e01b0316632a110e8360e01b179052613269565b6040516001600160a01b03821660248201526110a49060440160408051601f198184030181529190526020810180516001600160e01b031663161765e160e11b179052613269565b61105083838360405160240161167993929190614b03565b60408051601f198184030181529190526020810180516001600160e01b0316632ced7cef60e01b179052613269565b6110a4816040516024016116be91815260200190565b60408051601f198184030181529190526020810180516001600160e01b03166327b7cf8560e01b179052613269565b6040516affffffffffffffffffffff19821660248201526110a49060440160408051601f198184030181529190526020810180516001600160e01b031663074ed1ab60e51b179052613269565b6114568282604051602401611750929190614b46565b60408051601f198184030181529190526020810180516001600160e01b031663319af33360e01b179052613269565b60405181151560248201526110a49060440160408051601f198184030181529190526020810180516001600160e01b03166332458eed60e01b179052613269565b6040516001600160981b0319821660248201526110a49060440160408051601f198184030181529190526020810180516001600160e01b0316632514a78d60e21b179052613269565b6040516024810184905282151560448201526001600160a01b03821660648201526110509060840160408051601f198184030181529190526020810180516001600160e01b031663424effbf60e01b179052613269565b604051831515602482015260448101839052606481018290526110509060840160408051601f198184030181529190526020810180516001600160e01b03166301dae01f60e51b179052613269565b6110508383836040516024016118c793929190614b70565b60408051601f198184030181529190526020810180516001600160e01b0316635b6de83f60e01b179052613269565b60405163ffffffff19821660248201526110a49060440160408051601f198184030181529190526020810180516001600160e01b0316636415757760e11b179052613269565b6040518215156024820152604481018290526114569060640160408051601f198184030181529190526020810180516001600160e01b0316631b25b54960e11b179052613269565b6040516001600160901b0319821660248201526110a49060440160408051601f198184030181529190526020810180516001600160e01b0316639266f07f60e01b179052613269565b6040516001600160c81b0319821660248201526110a49060440160408051601f198184030181529190526020810180516001600160e01b03166309daafc560e31b179052613269565b604051602481018490526044810183905281151560648201526110509060840160408051601f198184030181529190526020810180516001600160e01b03166367570ff760e01b179052613269565b6040516001600160d01b0319821660248201526110a49060440160408051601f198184030181529190526020810180516001600160e01b031663ae84a59160e01b179052613269565b60405168ffffffffffffffffff19821660248201526110a49060440160408051601f198184030181529190526020810180516001600160e01b031663aba1cf0d60e01b179052613269565b6114568282604051602401611b0f929190614b89565b60408051601f198184030181529190526020810180516001600160e01b0316634b5c427760e01b179052613269565b611050838383604051602401611b5693929190614bae565b60408051601f198184030181529190526020810180516001600160e01b0316632353e86760e11b179052613269565b6040518315156024820152821515604482015281151560648201526110509060840160408051601f198184030181529190526020810180516001600160e01b0316630a0e12d360e31b179052613269565b6040516001600160b81b0319821660248201526110a49060440160408051601f198184030181529190526020810180516001600160e01b031663090bd8cd60e41b179052613269565b6040805160048152602481019091526020810180516001600160e01b03166351973ec960e01b179052611c5190613269565b565b6040516001600160d81b0319821660248201526110a49060440160408051601f198184030181529190526020810180516001600160e01b031663a684808d60e01b179052613269565b611050838383604051602401611cb493929190614bd9565b60408051601f198184030181529190526020810180516001600160e01b031663f362ca5960e01b179052613269565b6040516001600160881b0319821660248201526110a49060440160408051601f198184030181529190526020810180516001600160e01b03166306d4aba760e51b179052613269565b611050838383604051602401611d4493929190614c0f565b60408051601f198184030181529190526020810180516001600160e01b031663a3f5c73960e01b179052613269565b604051602481018490526001600160a01b0383166044820152606481018290526110509060840160408051601f198184030181529190526020810180516001600160e01b0316634421a1d560e11b179052613269565b60405160248101849052604481018390526001600160a01b03821660648201526110509060840160408051601f198184030181529190526020810180516001600160e01b031663be33491b60e01b179052613269565b60405183151560248201526001600160a01b0383166044820152606481018290526110509060840160408051601f198184030181529190526020810180516001600160e01b031663eb704baf60e01b179052613269565b611050838383604051602401611e8e93929190614c3a565b60408051601f198184030181529190526020810180516001600160e01b031663ce83047b60e01b179052613269565b6114568282604051602401611ed3929190614c64565b60408051601f198184030181529190526020810180516001600160e01b0316630fa3f34560e01b179052613269565b6110a481604051602401611f1891815260200190565b60408051601f198184030181529190526020810180516001600160e01b0316634e0c1d1d60e01b179052613269565b6040516001600160a01b03841660248201526044810183905281151560648201526110509060840160408051601f198184030181529190526020810180516001600160e01b0316633952b85160e21b179052613269565b611050838383604051602401611fb693929190614c7d565b60408051601f198184030181529190526020810180516001600160e01b0316630e6d794560e11b179052613269565b604051602481018390526001600160a01b03821660448201526114569060640160408051601f198184030181529190526020810180516001600160e01b031663163ae18360e21b179052613269565b6040516001600160f81b0319821660248201526110a49060440160408051601f198184030181529190526020810180516001600160e01b0316630dc3142560e31b179052613269565b61105083838360405160240161209593929190614ca1565b60408051601f198184030181529190526020810180516001600160e01b0316633eb4877360e11b179052613269565b61145682826040516024016120da929190614cc0565b60408051601f198184030181529190526020810180516001600160e01b031663759f86bb60e01b179052613269565b6040516001600160a01b038316602482015281151560448201526114569060640160408051601f198184030181529190526020810180516001600160e01b03166375b605d360e01b179052613269565b6040516001600160a01b0319821660248201526110a49060440160408051601f198184030181529190526020810180516001600160e01b03166386a06abd60e01b179052613269565b6040516001600160e81b0319821660248201526110a49060440160408051601f198184030181529190526020810180516001600160e01b03166316c1a49360e11b179052613269565b60405162ffffff19821660248201526110a49060440160408051601f198184030181529190526020810180516001600160e01b0316634b69c3d560e01b179052613269565b61105083838360405160240161224893929190614ce4565b60408051601f198184030181529190526020810180516001600160e01b0316630fc8792560e11b179052613269565b6040516001600160a01b03808516602483015260448201849052821660648201526110509060840160408051601f198184030181529190526020810180516001600160e01b03166325fb28e560e21b179052613269565b60405169ffffffffffffffffffff19821660248201526110a49060440160408051601f198184030181529190526020810180516001600160e01b031663357eba2760e21b179052613269565b60405160ff19821660248201526110a49060440160408051601f198184030181529190526020810180516001600160e01b0316636142a6c960e11b179052613269565b6040516001600160a01b0383166024820152604481018290526114569060640160408051601f198184030181529190526020810180516001600160e01b0316632243cfa360e01b179052613269565b6110508383836040516024016123c493929190614d15565b60408051601f198184030181529190526020810180516001600160e01b0316634285bd6b60e11b179052613269565b60405182151560248201526001600160a01b03821660448201526114569060640160408051601f198184030181529190526020810180516001600160e01b031663853c484960e01b179052613269565b61105083838360405160240161245b93929190614d3f565b60408051601f198184030181529190526020810180516001600160e01b03166345870a7f60e11b179052613269565b61145682826040516024016124a0929190614d60565b60408051601f198184030181529190526020810180516001600160e01b0316638feac52560e01b179052613269565b6110508383836040516024016124e793929190614d7b565b60408051601f198184030181529190526020810180516001600160e01b0316631265776760e31b179052613269565b61105083838360405160240161252e93929190614dae565b60408051601f198184030181529190526020810180516001600160e01b0316639591b95360e01b179052613269565b61105083838360405160240161257593929190614dc9565b60408051601f198184030181529190526020810180516001600160e01b03166395ed019560e01b179052613269565b6040516001600160c01b0319821660248201526110a49060440160408051601f198184030181529190526020810180516001600160e01b03166327c2129760e11b179052613269565b6110a48160405160240161260391815260200190565b60408051601f198184030181529190526020810180516001600160e01b031663f5b1bba960e01b179052613269565b6040516001600160f01b0319821660248201526110a49060440160408051601f198184030181529190526020810180516001600160e01b03166374db114b60e11b179052613269565b604051602481018490526001600160a01b038316604482015281151560648201526110509060840160408051601f198184030181529190526020810180516001600160e01b0316633d68094760e11b179052613269565b6040516001600160a01b03841660248201528215156044820152606481018290526110509060840160408051601f198184030181529190526020810180516001600160e01b0316632c468d1560e01b179052613269565b6040516001600160b01b0319821660248201526110a49060440160408051601f198184030181529190526020810180516001600160e01b031663013d178b60e01b179052613269565b61105083838360405160240161278a93929190614e07565b60408051601f198184030181529190526020810180516001600160e01b031663baf9684960e01b179052613269565b60405166ffffffffffffff19821660248201526110a49060440160408051601f198184030181529190526020810180516001600160e01b0316630170978b60e31b179052613269565b61105083838360405160240161281a93929190614e2e565b60408051601f198184030181529190526020810180516001600160e01b031663b076847f60e01b179052613269565b61105083838360405160240161286193929190614e5b565b60408051601f198184030181529190526020810180516001600160e01b031663b0e0f9b560e01b179052613269565b6110508383836040516024016128a893929190614e93565b60408051601f198184030181529190526020810180516001600160e01b0316633f57c29560e01b179052613269565b61145682826040516024016128ed929190614eac565b60408051601f198184030181529190526020810180516001600160e01b03166309710a9d60e41b179052613269565b6040516001600160a01b038416602482015260448101839052606481018290526110509060840160408051601f198184030181529190526020810180516001600160e01b03166343c309af60e11b179052613269565b604051602481018490526001600160a01b038084166044830152821660648201526110509060840160408051601f198184030181529190526020810180516001600160e01b0316637d77a61b60e01b179052613269565b61145682826040516024016129df929190614ece565b60408051601f198184030181529190526020810180516001600160e01b031663c3b5563560e01b179052613269565b611050838383604051602401612a2693929190614ef2565b60408051601f198184030181529190526020810180516001600160e01b0316630c8397eb60e41b179052613269565b60405161ffff19821660248201526110a49060440160408051601f198184030181529190526020810180516001600160e01b031663ee12c4ed60e01b179052613269565b611050838383604051602401612ab193929190614f13565b60408051601f198184030181529190526020810180516001600160e01b031663324757b560e21b179052613269565b611050838383604051602401612af893929190614f46565b60408051601f198184030181529190526020810180516001600160e01b0316630291bb9d60e41b179052613269565b611050838383604051602401612b3f93929190614f6b565b60408051601f198184030181529190526020810180516001600160e01b031663969cdd0360e01b179052613269565b611050838383604051602401612b8693929190614f90565b60408051601f198184030181529190526020810180516001600160e01b031663f102ee0560e01b179052613269565b611050838383604051602401612bcd93929190614fba565b60408051601f198184030181529190526020810180516001600160e01b031663cf020fb160e01b179052613269565b6040516024810184905260448101839052606481018290526110509060840160408051601f198184030181529190526020810180516001600160e01b03166339e0829d60e21b179052613269565b60405183151560248201526001600160a01b038084166044830152821660648201526110509060840160408051601f198184030181529190526020810180516001600160e01b031663d276366760e01b179052613269565b60405165ffffffffffff19821660248201526110a49060440160408051601f198184030181529190526020810180516001600160e01b031663f8b149f160e01b179052613269565b6040516001600160701b0319821660248201526110a49060440160408051601f198184030181529190526020810180516001600160e01b03166362691ecd60e11b179052613269565b6040516001600160a01b038084166024830152821660448201526114569060640160408051601f198184030181529190526020810180516001600160e01b0316636d786a5560e11b179052613269565b611050838383604051602401612d9b93929190614fde565b60408051601f198184030181529190526020810180516001600160e01b031663dbb4c24760e01b179052613269565b6040516001600160a81b0319821660248201526110a49060440160408051601f198184030181529190526020810180516001600160e01b0316630200251760e11b179052613269565b611050838383604051602401612e2b93929190614ff9565b60408051601f198184030181529190526020810180516001600160e01b0316630de9a92760e41b179052613269565b611050838383604051602401612e7293929190615025565b60408051601f198184030181529190526020810180516001600160e01b031663e0e9ad4f60e01b179052613269565b6110a481604051602401612eb59190614a15565b60408051601f198184030181529190526020810180516001600160e01b03166305f3bfab60e11b179052613269565b611050838383604051602401612efc93929190615059565b60408051601f198184030181529190526020810180516001600160e01b031663e298f47d60e01b179052613269565b60405183151560248201526044810183905281151560648201526110509060840160408051601f198184030181529190526020810180516001600160e01b0316631badc9eb60e01b179052613269565b6040516001600160a01b0384166024820152821515604482015281151560648201526110509060840160408051601f198184030181529190526020810180516001600160e01b03166375c1864960e11b179052613269565b6040516bffffffffffffffffffffffff19821660248201526110a49060440160408051601f198184030181529190526020810180516001600160e01b0316635188e3e960e01b179052613269565b61105083838360405160240161303993929190615086565b60408051601f198184030181529190526020810180516001600160e01b0316631e10e89d60e31b179052613269565b6040516001600160a01b0380851660248301528315156044830152821660648201526110509060840160408051601f198184030181529190526020810180516001600160e01b031663f11699ed60e01b179052613269565b60405160248101839052604481018290526114569060640160408051601f198184030181529190526020810180516001600160e01b031662d81ed360e71b179052613269565b6040516001600160781b0319821660248201526110a49060440160408051601f198184030181529190526020810180516001600160e01b03166319cfb39d60e11b179052613269565b611050838383604051602401613167939291906150bb565b60408051601f198184030181529190526020810180516001600160e01b031663fb77226560e01b179052613269565b6040516001600160e01b0319821660248201526110a49060440160408051601f198184030181529190526020810180516001600160e01b031663e05f48d160e01b179052613269565b60405164ffffffffff19821660248201526110a49060440160408051601f198184030181529190526020810180516001600160e01b0316633a3757dd60e01b179052613269565b61105083838360405160240161323e939291906150df565b60408051601f198184030181529190526020810180516001600160e01b03166307e763af60e51b1790525b80516a636f6e736f6c652e6c6f67602083016000808483855afa5050505050565b80356001600160a01b03811681146132a157600080fd5b919050565b634e487b7160e01b600052604160045260246000fd5b60006001600160401b03808411156132d6576132d66132a6565b604051601f8501601f19908116603f011681019082821181831017156132fe576132fe6132a6565b8160405280935085815286868601111561331757600080fd5b858560208301376000602087830101525050509392505050565b600082601f83011261334257600080fd5b613351838335602085016132bc565b9392505050565b60008060006060848603121561336d57600080fd5b6133768461328a565b92506133846020850161328a565b915060408401356001600160401b0381111561339f57600080fd5b6133ab86828701613331565b9150509250925092565b6000602082840312156133c757600080fd5b81356cffffffffffffffffffffffffff198116811461335157600080fd5b6000806000606084860312156133fa57600080fd5b6134038461328a565b92506134116020850161328a565b915061341f6040850161328a565b90509250925092565b803580151581146132a157600080fd5b60008060006060848603121561344d57600080fd5b61345684613428565b92506020840135915061341f6040850161328a565b60006020828403121561347d57600080fd5b813567ffffffffffffffff198116811461335157600080fd5b6000602082840312156134a857600080fd5b81356001600160401b038111156134be57600080fd5b6134ca84828501613331565b949350505050565b6000806000606084860312156134e757600080fd5b83356001600160401b038111156134fd57600080fd5b61350986828701613331565b9350506135186020850161328a565b9150604084013590509250925092565b60008060006060848603121561353d57600080fd5b61354684613428565b925061341160208501613428565b60008060006060848603121561356957600080fd5b61357284613428565b925060208401356001600160401b0381111561358d57600080fd5b61359986828701613331565b925050604084013590509250925092565b6000806000606084860312156135bf57600080fd5b6135c884613428565b925061351860208501613428565b6000806000606084860312156135eb57600080fd5b6135f48461328a565b92506135186020850161328a565b60008060006060848603121561361757600080fd5b61362084613428565b925061362e6020850161328a565b915061341f60408501613428565b60008060006060848603121561365157600080fd5b83356001600160401b0381111561366757600080fd5b61367386828701613331565b9350506020840135915061341f6040850161328a565b6000806040838503121561369c57600080fd5b823591506136ac60208401613428565b90509250929050565b6000602082840312156136c757600080fd5b81356001600160801b03198116811461335157600080fd5b6000806000606084860312156136f457600080fd5b8335925061351860208501613428565b60008060006060848603121561371957600080fd5b8335925061362e60208501613428565b60008060006060848603121561373e57600080fd5b6137478461328a565b925061338460208501613428565b60008060006060848603121561376a57600080fd5b61374784613428565b6000806040838503121561378657600080fd5b61378f83613428565b91506136ac60208401613428565b6000602082840312156137af57600080fd5b6133518261328a565b6000806000606084860312156137cd57600080fd5b83356001600160401b03808211156137e457600080fd5b6137f087838801613331565b9450602086013591508082111561380657600080fd5b61381287838801613331565b9350604086013591508082111561382857600080fd5b506133ab86828701613331565b60006020828403121561384757600080fd5b5035919050565b60006020828403121561386057600080fd5b81356affffffffffffffffffffff198116811461335157600080fd5b6000806040838503121561388f57600080fd5b82356001600160401b038111156138a557600080fd5b6138b185828601613331565b9250506136ac6020840161328a565b6000602082840312156138d257600080fd5b61335182613428565b6000602082840312156138ed57600080fd5b81356001600160981b03198116811461335157600080fd5b60008060006060848603121561391a57600080fd5b8335925061341160208501613428565b60008060006060848603121561393f57600080fd5b61394884613428565b95602085013595506040909401359392505050565b60008060006060848603121561397257600080fd5b8335925060208401356001600160401b0381111561358d57600080fd5b6000602082840312156139a157600080fd5b813563ffffffff198116811461335157600080fd5b600080604083850312156139c957600080fd5b6139d283613428565b946020939093013593505050565b6000602082840312156139f257600080fd5b81356001600160901b03198116811461335157600080fd5b600060208284031215613a1c57600080fd5b81356001600160c81b03198116811461335157600080fd5b600080600060608486031215613a4957600080fd5b833592506020840135915061341f60408501613428565b600060208284031215613a7257600080fd5b81356001600160d01b03198116811461335157600080fd5b600060208284031215613a9c57600080fd5b813568ffffffffffffffffff198116811461335157600080fd5b60008060408385031215613ac957600080fd5b82356001600160401b0380821115613ae057600080fd5b613aec86838701613331565b93506020850135915080821115613b0257600080fd5b50613b0f85828601613331565b9150509250929050565b600080600060608486031215613b2e57600080fd5b8335925060208401356001600160401b03811115613b4b57600080fd5b613b5786828701613331565b92505061341f60408501613428565b600080600060608486031215613b7b57600080fd5b613b8484613428565b925061362e60208501613428565b600060208284031215613ba457600080fd5b81356001600160b81b03198116811461335157600080fd5b600060208284031215613bce57600080fd5b81356001600160d81b03198116811461335157600080fd5b600080600060608486031215613bfb57600080fd5b83356001600160401b0380821115613c1257600080fd5b613c1e87838801613331565b94506020860135915080821115613c3457600080fd5b5061359986828701613331565b600060208284031215613c5357600080fd5b81356001600160881b03198116811461335157600080fd5b600080600060608486031215613c8057600080fd5b83356001600160401b0380821115613c9757600080fd5b613ca387838801613331565b945060208601359350604086013591508082111561382857600080fd5b600080600060608486031215613cd557600080fd5b833592506135186020850161328a565b600080600060608486031215613cfa57600080fd5b833592506020840135915061341f6040850161328a565b600080600060608486031215613d2657600080fd5b6135f484613428565b600080600060608486031215613d4457600080fd5b833592506133846020850161328a565b60008060408385031215613d6757600080fd5b8235915060208301356001600160401b03811115613d8457600080fd5b613b0f85828601613331565b600080600060608486031215613da557600080fd5b613dae8461328a565b92506020840135915061341f60408501613428565b600080600060608486031215613dd857600080fd5b6135728461328a565b60008060408385031215613df457600080fd5b823591506136ac6020840161328a565b600060208284031215613e1657600080fd5b81356001600160f81b03198116811461335157600080fd5b600080600060608486031215613e4357600080fd5b833592506020840135915060408401356001600160401b0381111561339f57600080fd5b60008060408385031215613e7a57600080fd5b613e838361328a565b915060208301356001600160401b03811115613d8457600080fd5b60008060408385031215613eb157600080fd5b61378f8361328a565b600060208284031215613ecc57600080fd5b81356001600160a01b03198116811461335157600080fd5b600060208284031215613ef657600080fd5b81356001600160e81b03198116811461335157600080fd5b600060208284031215613f2057600080fd5b813562ffffff198116811461335157600080fd5b600080600060608486031215613f4957600080fd5b8335925060208401356001600160401b03811115613f6657600080fd5b613f7286828701613331565b92505061341f6040850161328a565b600080600060608486031215613f9657600080fd5b6134568461328a565b600060208284031215613fb157600080fd5b813569ffffffffffffffffffff198116811461335157600080fd5b600060208284031215613fde57600080fd5b813560ff198116811461335157600080fd5b6000806040838503121561400357600080fd5b6139d28361328a565b60008060006060848603121561402157600080fd5b83356001600160401b0381111561403757600080fd5b61404386828701613331565b93505061362e60208501613428565b6000806040838503121561406557600080fd5b61406e83613428565b91506136ac6020840161328a565b60008060006060848603121561409157600080fd5b8335925061338460208501613428565b600080604083850312156140b457600080fd5b613e8383613428565b6000806000606084860312156140d257600080fd5b83356001600160401b038111156140e857600080fd5b6140f486828701613331565b93505061341160208501613428565b60008060006060848603121561411857600080fd5b61412184613428565b925060208401356001600160401b03811115613f6657600080fd5b60008060006060848603121561415157600080fd5b83356001600160401b038082111561416857600080fd5b61417487838801613331565b9450602086013591508082111561418a57600080fd5b50613f7286828701613331565b6000602082840312156141a957600080fd5b81356001600160c01b03198116811461335157600080fd5b6000602082840312156141d357600080fd5b81356001600160f01b03198116811461335157600080fd5b60008060006060848603121561420057600080fd5b8335925061362e6020850161328a565b60008060006060848603121561422557600080fd5b6135c88461328a565b60006020828403121561424057600080fd5b81356001600160b01b03198116811461335157600080fd5b60008060006060848603121561426d57600080fd5b6142768461328a565b92506020840135915060408401356001600160401b0381111561339f57600080fd5b6000602082840312156142aa57600080fd5b813566ffffffffffffff198116811461335157600080fd5b6000806000606084860312156142d757600080fd5b6142e084613428565b925060208401356001600160401b038082111561380657600080fd5b60008060006060848603121561431157600080fd5b83356001600160401b038082111561432857600080fd5b61433487838801613331565b9450602086013591508082111561434a57600080fd5b50613b5786828701613331565b60008060006060848603121561436c57600080fd5b8335925060208401356001600160401b038082111561380657600080fd5b6000806040838503121561439d57600080fd5b82356001600160401b038111156143b357600080fd5b6143bf85828601613331565b95602094909401359450505050565b6000806000606084860312156143e357600080fd5b6139488461328a565b60008060006060848603121561440157600080fd5b833592506134116020850161328a565b6000806040838503121561442457600080fd5b82356001600160401b0381111561443a57600080fd5b61444685828601613331565b9250506136ac60208401613428565b60008060006060848603121561446a57600080fd5b61427684613428565b60006020828403121561448557600080fd5b813561ffff198116811461335157600080fd5b6000806000606084860312156144ad57600080fd5b83356001600160401b038111156144c357600080fd5b6144cf86828701613331565b93505061362e6020850161328a565b6000806000606084860312156144f357600080fd5b83356001600160401b0381111561450957600080fd5b61451586828701613331565b93505061351860208501613428565b60008060006060848603121561453957600080fd5b83356001600160401b0381111561454f57600080fd5b61455b86828701613331565b9660208601359650604090950135949350505050565b60008060006060848603121561458657600080fd5b83356001600160401b0381111561459c57600080fd5b6145a886828701613331565b9350506020840135915061341f60408501613428565b6000806000606084860312156145d357600080fd5b6145dc8461328a565b925060208401356001600160401b03811115613b4b57600080fd5b60008060006060848603121561460c57600080fd5b505081359360208301359350604090920135919050565b60008060006060848603121561463857600080fd5b61340384613428565b60006020828403121561465357600080fd5b813565ffffffffffff198116811461335157600080fd5b60006020828403121561467c57600080fd5b81356001600160701b03198116811461335157600080fd5b600080604083850312156146a757600080fd5b61406e8361328a565b6000806000606084860312156146c557600080fd5b6145dc84613428565b6000602082840312156146e057600080fd5b81356001600160a81b03198116811461335157600080fd5b60008060006060848603121561470d57600080fd5b61337684613428565b60008060006060848603121561472b57600080fd5b83356001600160401b038082111561474257600080fd5b61474e87838801613331565b94506138126020870161328a565b60006020828403121561476e57600080fd5b81356001600160401b0381111561478457600080fd5b8201601f8101841361479557600080fd5b6134ca848235602084016132bc565b6000806000606084860312156147b957600080fd5b83356001600160401b03808211156147d057600080fd5b6147dc87838801613331565b945061381260208701613428565b6000806000606084860312156147ff57600080fd5b613dae84613428565b60008060006060848603121561481d57600080fd5b613b848461328a565b60006020828403121561483857600080fd5b81356bffffffffffffffffffffffff198116811461335157600080fd5b60008060006060848603121561486a57600080fd5b6141218461328a565b60008060006060848603121561488857600080fd5b6135468461328a565b600080604083850312156148a457600080fd5b50508035926020909101359150565b6000602082840312156148c557600080fd5b81356001600160781b03198116811461335157600080fd5b6000806000606084860312156148f257600080fd5b6142e08461328a565b60006020828403121561490d57600080fd5b81356001600160e01b03198116811461335157600080fd5b60006020828403121561493757600080fd5b813564ffffffffff198116811461335157600080fd5b60008060006060848603121561496257600080fd5b83356001600160401b0381111561497857600080fd5b61498486828701613331565b9350506134116020850161328a565b6000815180845260005b818110156149b95760208185018101518683018201520161499d565b818111156149cb576000602083870101525b50601f01601f19169290920160200192915050565b6001600160a01b03848116825283166020820152606060408201819052600090614a0c90830184614993565b95945050505050565b6020815260006133516020830184614993565b606081526000614a3b6060830186614993565b6001600160a01b039490941660208301525060400152919050565b8315158152606060208201526000614a716060830185614993565b9050826040830152949350505050565b606081526000614a946060830186614993565b6020830194909452506001600160a01b0391909116604090910152919050565b6001600160a01b03841681528215156020820152606060408201819052600090614a0c90830184614993565b83151581528215156020820152606060408201526000614a0c6060830184614993565b606081526000614b166060830186614993565b8281036020840152614b288186614993565b90508281036040840152614b3c8185614993565b9695505050505050565b604081526000614b596040830185614993565b905060018060a01b03831660208301529392505050565b838152606060208201526000614a716060830185614993565b604081526000614b9c6040830185614993565b8281036020840152614a0c8185614993565b838152606060208201526000614bc76060830185614993565b90508215156040830152949350505050565b606081526000614bec6060830186614993565b8281036020840152614bfe8186614993565b915050826040830152949350505050565b606081526000614c226060830186614993565b8460208401528281036040840152614b3c8185614993565b8381526001600160a01b0383166020820152606060408201819052600090614a0c90830184614993565b8281526040602082015260006134ca6040830184614993565b6001600160a01b0384168152606060208201819052600090614a7190830185614993565b838152826020820152606060408201526000614a0c6060830184614993565b6001600160a01b03831681526040602082018190526000906134ca90830184614993565b838152606060208201526000614cfd6060830185614993565b905060018060a01b0383166040830152949350505050565b606081526000614d286060830186614993565b931515602083015250901515604090910152919050565b8381528215156020820152606060408201526000614a0c6060830184614993565b82151581526040602082015260006134ca6040830184614993565b606081526000614d8e6060830186614993565b9315156020830152506001600160a01b0391909116604090910152919050565b8315158152606060208201526000614cfd6060830185614993565b606081526000614ddc6060830186614993565b8281036020840152614dee8186614993565b91505060018060a01b0383166040830152949350505050565b60018060a01b0384168152826020820152606060408201526000614a0c6060830184614993565b8315158152606060208201526000614e496060830185614993565b8281036040840152614b3c8185614993565b606081526000614e6e6060830186614993565b8281036020840152614e808186614993565b9150508215156040830152949350505050565b838152606060208201526000614e496060830185614993565b604081526000614ebf6040830185614993565b90508260208301529392505050565b604081526000614ee16040830185614993565b905082151560208301529392505050565b8315158152826020820152606060408201526000614a0c6060830184614993565b606081526000614f266060830186614993565b6001600160a01b0394909416602083015250901515604090910152919050565b606081526000614f596060830186614993565b93151560208301525060400152919050565b606081526000614f7e6060830186614993565b60208301949094525060400152919050565b606081526000614fa36060830186614993565b602083019490945250901515604090910152919050565b6001600160a01b0384168152606060208201819052600090614bc790830185614993565b8315158152606060208201526000614bc76060830185614993565b83151581526001600160a01b0383166020820152606060408201819052600090614a0c90830184614993565b6060815260006150386060830186614993565b6001600160a01b03851660208401528281036040840152614b3c8185614993565b60608152600061506c6060830186614993565b84151560208401528281036040840152614b3c8185614993565b600060018060a01b038086168352606060208401526150a86060840186614993565b9150808416604084015250949350505050565b6001600160a01b0384168152606060208201819052600090614e4990830185614993565b6060815260006150f26060830186614993565b6001600160a01b039485166020840152929093166040909101529291505056fea164736f6c634300080c000a",
    "linkReferences": {}
  }
}